:1000000012C019C018C017C016C015C014C013C044
:1000100012C011C010C00FC00EC00DC00CC00BC06C
:100020000AC009C008C011241FBECFE5D4E0DEBF5E
:10003000CDBF02D041C0E4CF0F931F9383E087BBB5
:1000400091E098BB11BA82BB80E090E041E052E0C1
:10005000819B22C0809B0CC00FE718E321E0015078
:1000600010402040E1F700C0000080E090E0F0CFB9
:10007000009731F488B3842788BB88B3852788BB71
:100080008FE798E3A1E081509040A040E1F700C0E5
:10009000000081E090E0DCCF28B3242728BB28B300
:1000A000252728BB0FEF12E527E001501040204024
:0C00B000E1F700C00000CCCFF894FFCFB7
:00000001FF
