:1000000012C019C018C017C016C015C014C013C044
:1000100012C011C010C00FC00EC00DC00CC00BC06C
:100020000AC009C008C011241FBECFE5D4E0DEBF5E
:10003000CDBF02D02EC0E4CF87B3836087BBC09A08
:10004000C1988898909A80E090E031E022E0809B0F
:100050000CC04FE758E361E0415050406040E1F789
:1000600000C0000080E090E0F2CF009741F488B338
:10007000832788BB88B3822788BB81E090E04FE765
:1000800058E361E0415050406040E1F700C000009B
:06009000DECFF894FFCF63
:00000001FF
