:1000000012C019C018C017C016C015C014C013C044
:1000100012C011C010C00FC00EC00DC00CC00BC06C
:100020000AC009C008C011241FBECFE5D4E0DEBF5E
:10003000CDBF02D05FC0E4CF83E087BB81E088BB47
:1000400011BA87E082BB20E030E0E0E0F0E051E070
:1000500042E081990EC068B3652768BB68B3642726
:1000600068BB8FE799EAA3E081509040A040E1F798
:100070001FC0809B0CC08FE798E3A1E081509040A7
:10008000A040E1F700C00000E0E0F0E013C03097CE
:1000900041F488B3852788BB88B3842788BBE1E017
:1000A000F0E08FE798E3A1E081509040A040E1F7B5
:1000B00000C000008299CDCF819BCBCF68B366236F
:1000C00011F028B330E02130310519F468B3652709
:1000D00006C02230310509F0BCCF68B3642768BB85
:1000E0008FEF91EEA4E081509040A040E1F700C076
:0800F0000000AFCFF894FFCF30
:00000001FF
