:1000000012C02CC02BC02AC029C028C027C026C0BF
:1000100025C024C023C022C021C020C01FC01EC0D4
:100020001DC01CC01BC011241FBECFE5D4E0DEBF25
:10003000CDBF10E0A0E6B0E0EAE2FAE002C0059031
:100040000D92A639B107D9F710E0A6E9B0E001C0DA
:100050001D92A839B107E1F702D0E5C4D1CF4F9284
:100060005F926F927F928F929F92AF92BF92CF9248
:10007000DF92EF92FF920F931F93DF93CF93CDB751
:10008000DEB7C552D1400FB6F894DEBF0FBECDBF6C
:100090008FE087BBDE011596E1E7F0E080E201909A
:1000A0000D928150E1F78EEF89838DEF8A838BEF7C
:1000B0008B8387EF8C8325E2E22EF12CEC0EFD1E64
:1000C0008FEFD7011D928A95E9F744D137D1CFD070
:1000D000CC24DD2400E010E020E030E04E01089464
:1000E000811C911C370190E6492E90E0592E02C0E8
:1000F00000E010E0F401E00FF11F808188BBC8012F
:10010000CC5DDE4F2883C452D140CB5DDE4F3883B7
:10011000C552D14059D15C017AD17C01CC5DDE4F12
:100120002881C452D140CB5DDE4F3881C552D140C9
:1001300081309105D1F521153105E1F5EFEFAE16CE
:10014000EFEFBE06C9F10894C11CD11CF7D08FD0C7
:100150008DB79EB708970FB6F8949EBF0FBE8DBFA0
:10016000EDB7FEB73196ADB7BEB711966C92119749
:1001700012967C9253824282D501AA0FBB1FA80D12
:10018000B91D14968D919C91159795838483D78280
:10019000C68252D1EDB7FEB738960FB6F894FEBFBF
:1001A0000FBEEDBFC30197D005C0009729F420E032
:1001B00030E002C021E030E08FE493EC0197F1F7EA
:1001C00000C00000E114F10409F094CF0F5F1F4F4D
:1001D0000430110509F08ECF8BCF05C000006150AF
:1001E0007040804090406115710581059105B1F71F
:1001F0000895959A6AE070E080E090E0EEDF9598CF
:1002000008950F931F93182F062F68EE73E080E078
:1002100090E0E3DF002311F0949A01C09498889A4B
:10022000899A8A9A8B9A939892989198909817FDA8
:10023000939A16FD929A15FD919A14FD909AD9DF22
:10024000939892989198909813FD939A12FD929A90
:1002500011FD919A10FD909ACCDF909A919A929A02
:10026000939A1F910F91089560E0CBDF089510924B
:1002700097001092960082E0F7DF0895662319F048
:10028000613031F403C08058EFDF08958054ECDF13
:100290000895843030F4E82FF0E0EF56FF4F90815E
:1002A00001C090E08093960010929700892F8058AB
:1002B000DBDF08958A3061F4809196009091970079
:1002C0001816190614F480E001C08F5FE2DF08956C
:1002D00061E097DF0895CF93DF93EC0101C0EADF7F
:1002E00089918823E1F7DF91CF9108950F931F93B0
:1002F000DF93CF93CDB7DEB7C050D1400FB6F8949F
:10030000DEBF0FBECDBFFE01E95FFE4F41915191AF
:100310008E010F5F1F4FC8016FEF70E09F01ACD0DF
:10032000C801D9DFC050DF4F0FB6F894DEBF0FBE53
:10033000CDBFCF91DF911F910F910895109297003B
:100340001092960081E090DF64EF71E080E090E031
:1003500044DF08958C9A8D9A889A899A8A9A8B9A02
:1003600068EA71E680E090E038DF919A909A41DF88
:1003700060ED77E080E090E030DF3BDF60E470E04C
:1003800080E090E02ADF909834DF60ED77E080E055
:1003900090E023DF88E268DF2CDF60ED77E080E02B
:1003A00090E01BDF86E060DF24DF64EC79E080E032
:1003B00090E013DF8CE058DF1CDF64EC79E080E034
:1003C00090E00BDF54DF0895B49B03C02FEF3FEFA5
:1003D00002C020E030E0B59902C021E030E0B699DB
:1003E00002C022E030E0B79B05C04FEF2F3F34073B
:1003F00051F002C023E030E0220F331F220F331FE1
:10040000280F391F02C02FEF3FEFC9010895B49B99
:100410000FC0B59B0DC0B69B0BC026B3332727FD7D
:100420003095209530952227330F221F332702C0A5
:1004300021E030E0C9010895AEE0B0E0E1E2F2E091
:10044000C9C20D891E8986E08C831A8309838FEFC8
:100450009FE79E838D839E01275E3F4FCE010196CD
:100460006F89788DA90130D0EF81F885E00FF11FF9
:1004700010822E96E4E0CAC2AEE0B0E0E1E4F2E021
:10048000A9C28C01CB01BA0146E04C831A830983CF
:1004900097FF02C080E090E801979E838D83CE0194
:1004A0000196A90111D04D815E8157FD0AC02F81AF
:1004B0003885421753070CF49A01020F131FF801F5
:1004C00010822E96E4E0A2C2ACE0B0E0E9E6F2E0F1
:1004D00073C26C011B018A01FC01178216828381A1
:1004E00081FFC4C12E010894411C511CF601938167
:1004F000F10193FD859193FF81911F01882309F4F8
:10050000B1C1853239F493FD859193FF81911F012B
:10051000853221F490E0B601C5D1E8CFEE24FF2466
:1005200020E02032B0F48B3269F08C3228F4803233
:1005300051F0833271F40BC08D3239F0803349F4BD
:1005400021602CC02260246029C0286027C020615F
:1005500025C027FD2CC0382F30533A3098F426FFA1
:1005600008C08E2D880FE82EEE0CEE0CE80EE30E80
:1005700015C08F2D880FF82EFF0CFF0CF80EF30E10
:1005800020620CC08E3221F426FD6CC1206406C0AE
:100590008C3611F4206802C0883649F4F10193FDCD
:1005A000859193FF81911F01882309F0BACF982F7D
:1005B0009554933018F09052933028F40C5F1F4FED
:1005C000FFE3F9830DC0833631F0833771F0833553
:1005D00009F05CC021C0F801808189830E5F1F4F44
:1005E000420171E0A72EB12C15C062E0662E712C7D
:1005F000600E711EF8018080918026FF03C06E2D71
:1006000070E002C06FEF7FEFC4012C8740D15C0126
:1006100083012C852F7716C052E0652E712C600E59
:10062000711EF8018080918026FF03C06E2D70E05E
:1006300002C06FEF7FEFC4012C871ED15C012C85B7
:100640002068830123FD1EC007C080E290E0B60150
:100650002C8728D1FA942C858F2D90E0A816B90606
:10066000A0F310C0F40127FD859127FF81914F0170
:1006700090E0B6012C8716D12C85F110FA940894DD
:10068000A108B108A114B10469F7E9C0843611F0DA
:10069000893641F527FF08C0F801608171818281A8
:1006A00093810C5F1F4F09C0F80160817181882719
:1006B00077FD8095982F0E5F1F4F4FE6B42EB22224
:1006C00097FF09C090958095709561957F4F8F4FEA
:1006D0009F4FF0E8BF2AA2012AE030E00FD1782E28
:1006E000741844C0853731F43FEEB32EB2222AE0AD
:1006F00030E025C099EFB92EB2228F36C1F0803795
:1007000020F4883509F0AEC00DC0803721F088375D
:1007100009F0A8C002C020E1B22AB4FE0BC084E0F8
:10072000B82A08C0B4FE09C0E6E0BE2A06C028E028
:1007300030E005C020E130E002C020E132E0B7FE49
:1007400008C0F80160817181828193810C5F1F4F25
:1007500007C0F8016081718180E090E00E5F1F4F5B
:10076000A201CCD0782E7418FFE7BF22B6FE0BC0D2
:100770002EEFB2227E1438F4B4FE07C0B2FC05C0DE
:100780008FEEB82202C0A72C01C0AE2C8B2D90E0BA
:10079000B4FE0DC0FE01E70DF11D2081203319F4D8
:1007A000E9EEBE2209C0A394B2FE06C004C086785A
:1007B0009070009709F0A3948B2C9924B3FC13C07C
:1007C000B0FE0EC0AF1428F4E72CEF0CEA18AF2CE3
:1007D00007C0E72C05C080E290E0B60163D0A39487
:1007E000AF14C8F304C0AF1410F4FA1801C0FF240A
:1007F00084FE0EC080E390E0B60154D082FE1DC09E
:1008000081FE03C088E590E010C088E790E00DC04D
:10081000C40186789070009781F081FC02C080E26C
:1008200001C08BE2B7FC8DE290E0B6013BD005C081
:1008300080E390E0B60136D0EA947E14C8F37A944F
:10084000F201E70DF11D808190E0B6012BD07720F9
:10085000B1F705C080E290E0B60124D0FA94FF2001
:10086000C9F744CEF6012681378102C02FEF3FEF52
:10087000C9012C96E2E1BCC0FC01059061507040BA
:100880000110D8F7809590958E0F9F1F0895FC0159
:100890006150704001900110D8F7809590958E0FAF
:1008A0009F1F08950F931F93CF93DF938C01EB014C
:1008B0008B8181FF1BC082FF0DC02E813F818C8107
:1008C0009D812817390764F4E881F9810193F98340
:1008D000E88306C0E885F985802F0995009731F4F3
:1008E0008E819F8101969F838E8302C00FEF1FEF41
:1008F000C801DF91CF911F910F910895FA01AA27A6
:10090000283051F1203181F1E8946F936E7F6E5F52
:100910007F4F8F4F9F4FAF4FB1E03ED0B4E03CD000
:10092000670F781F891F9A1FA11D680F791F8A1FE3
:10093000911DA11D6A0F711D811D911DA11D20D04A
:1009400009F468943F912AE0269F11243019305D04
:100950003193DEF6CF010895462F4770405D4193F5
:10096000B3E00FD0C9F7F6CF462F4F70405D4A3342
:1009700018F0495D31FD4052419302D0A9F7EACF0A
:10098000B4E0A6959795879577956795BA95C9F739
:1009900000976105710508959B01AC010A2E06942C
:1009A0005795479537952795BA95C9F7620F731FE5
:1009B000841F951FA01D08952F923F924F925F9222
:1009C0006F927F928F929F92AF92BF92CF92DF925F
:1009D000EF92FF920F931F93CF93DF93CDB7DEB7C4
:1009E000CA1BDB0B0FB6F894DEBF0FBECDBF099458
:1009F0002A88398848885F846E847D848C849B84AF
:100A0000AA84B984C884DF80EE80FD800C811B81BC
:100A1000AA81B981CE0FD11D0FB6F894DEBF0FBEEB
:0A0A2000CDBFED010895F894FFCF5B
:100A2A004B6C617769737A3A202564202D202564FE
:100A3A0000070008000900FAFF040005000600FB91
:100A4A00FF010002000300FCFFFFFF0000FEFFFDA4
:060A5A00FF0040145400EF
:00000001FF
