:1000000012C02CC02BC02AC029C028C027C026C0BF
:1000100025C024C023C022C021C020C01FC01EC0D4
:100020001DC01CC01BC011241FBECFE5D4E0DEBF25
:10003000CDBF10E0A0E6B0E0EAEDFDE002C0059023
:100040000D92AA39B107D9F710E0AAE9B0E001C0D2
:100050001D92A23AB107E1F702D0BDC6D1CFAF924F
:10006000BF92CF92DF92EF92FF920F931F93DF9395
:10007000CF93CDB7DEB7A6970FB6F894DEBF0FBE0D
:10008000CDBF8FE087BBDE011596E0E6F0E080E2B1
:1000900001900D928150E1F78EEF89838DEF8A8375
:1000A0008BEF8B8387EF8C8304D1F7D08FD000E068
:1000B00010E020E030E05E010894A11CB11C02C0F9
:1000C00000E010E0F501E00FF11F808188BBC8015E
:1000D0002DA33EA33DD16C0126D17C012DA13EA1D3
:1000E00081E0E816F10489F421153105A1F49FEFB0
:1000F000C9169FEFD90689F0F601EE0FFF1FEA0D32
:10010000FB1D8481958124D306C0E114F10429F4F8
:1001100020E030E002C021E030E08FE493EC019772
:10012000F1F700C00000E114F10461F60F5F1F4F0A
:100130000430110539F6C4CF05C00000615070408D
:10014000804090406115710581059105B1F70895D2
:10015000959A6AE070E080E090E0EEDF959808956F
:100160000F931F93182F062F68EE73E080E090E046
:10017000E3DF002311F0949A01C09498889A899A39
:100180008A9A8B9A939892989198909817FD939A3F
:1001900016FD929A15FD919A14FD909AD9DF9398C5
:1001A00092989198909813FD939A12FD929A11FD4E
:1001B000919A10FD909ACCDF909A919A929A939A84
:1001C0001F910F91089560E0CBDF089510929B007E
:1001D00010929A0082E0F7DF0895662319F06130EB
:1001E00031F403C08058EFDF08958054ECDF0895A8
:1001F000843030F4E82FF0E0E058FF4F908101C0E8
:1002000090E080939A0010929B00892F8058DBDF4A
:1002100008958A3061F480919A0090919B0018169D
:10022000190614F480E001C08F5FE2DF089561E0F9
:1002300097DF0895CF93DF93EC0101C0EADF899146
:100240008823E1F7DF91CF9108950F931F93DF93F8
:10025000CF93CDB7DEB7C050D1400FB6F894DEBF14
:100260000FBECDBFFE01E95FFE4F419151918E015E
:100270000F5F1F4FC8016FEF70E09F01D5D2C8011B
:10028000D9DFC050DF4F0FB6F894DEBF0FBECDBF31
:10029000CF91DF911F910F91089510929B001092C2
:1002A0009A0081E090DF64EF71E080E090E044DF4D
:1002B00008958C9A8D9A889A899A8A9A8B9A68EA74
:1002C00071E680E090E038DF919A909A41DF60ED2E
:1002D00077E080E090E030DF3BDF60E470E080E0DA
:1002E00090E02ADF909834DF60ED77E080E090E0E6
:1002F00023DF88E268DF2CDF60ED77E080E090E0CC
:100300001BDF86E060DF24DF64EC79E080E090E0D2
:1003100013DF8CE058DF1CDF64EC79E080E090E0D4
:100320000BDF54DF0895B49B0FC0B59B0DC0B69B87
:100330000BC026B3332727FD309520953095222713
:10034000330F221F332702C021E030E0C901089596
:10035000B49B03C02FEF3FEF02C020E030E0B5991F
:1003600002C021E030E0B69902C022E030E0B79B45
:1003700005C04FEF2F3F340751F002C023E030E0BB
:10038000220F331F220F331F280F391F02C02FEFF8
:100390003FEFC90108952091980030919900283CC1
:1003A000310509F44FC0293C310544F422333105AD
:1003B000A1F02436310509F061C027C041E02039A1
:1003C000340709F43FC041E0243F3407D9F141E04C
:1003D0002C32340709F052C035C040919C00509136
:1003E0009D004115510521F4909581959F4F14C0B2
:1003F0009A01220F331FA3E0440F551FAA95E1F77E
:10040000240F351F281B390B18C040919C005091B8
:100410009D004115510529F490939D0080939C0007
:1004200008959A01220F331FE3E0440F551FEA9508
:10043000E1F7240F351F280F391F30939D002093BB
:100440009C00089540919E0050919F0041155105D8
:1004500029F490939F0080939E0008959A01220FA3
:10046000331F63E0440F551F6A95E1F7240F351FD2
:10047000280F391F30939F0020939E000895089500
:10048000809198009091990021E08C329207E9F0D8
:1004900021E08D3292072CF4883C910509F041C08F
:1004A00009C021E080399207F9F021E0843F9207EA
:1004B000C1F52AC080919E0090919F0020919C00E0
:1004C00030919D00820F931F0AC080919C009091F3
:1004D0009D0020919E0030919F00821B930B909372
:1004E000A1008093A0001DC040919E0050919F00EC
:1004F00020919C0030919D00429FC001439F900D30
:10050000529F900D1124EBCF80919C0090919D0003
:1005100060919E0070919F0039D17093A10060930B
:10052000A00088E592E09093990080939800089548
:100530002FEF8B3F920701F12FEF8C3F92072CF4A6
:100540002FEF8A3F920729F51EC02FEF8C3F9207AD
:1005500039F02FEF8D3F9207E1F488EC90E00EC068
:1005600080919C0090919D00009719F08CE291E0A1
:1005700005C082E390E002C080E991E09093990089
:1005800080939800089584EF91E090939900809370
:10059000980008950F931F93DF93CF93CDB7DEB7E5
:1005A00060970FB6F894DEBF0FBECDBF8E010F5F10
:1005B0001F4F80E1D8011D928A95E9F76EDE809188
:1005C000980090919900B2E088359B0709F44EC0DD
:1005D00080919C0090919D001816190624F580E0EA
:1005E00060E0FBDD00D000D000D0EDB7FEB7319663
:1005F000ADB7BEB712961C930E93119784E890E0A6
:100600009383828380919C0090919D009583848345
:10061000EBD0EDB7FEB736960FB6F894FEBF0FBE1F
:10062000EDBFC80107DE80919E0090919F001816D3
:1006300019060CF03FC081E061E0CFDD00D000D0B2
:1006400000D0EDB7FEB731968E010F5F1F4FADB7EB
:10065000BEB712961C930E93119789E890E093838E
:10066000828380919E0090919F0017C081E061E09D
:10067000B4DD00D000D000D0EDB7FEB73196ADB7F5
:10068000BEB712961C930E93119789E890E093835E
:1006900082838091A0009091A10095838483A4D04F
:1006A000EDB7FEB736960FB6F894FEBF0FBEEDBF9E
:1006B000C801C0DD8091980090919900883C910517
:1006C000E4F180E061E089DD8091980090919900EB
:1006D000F1E080399F07F9F021E08139920744F475
:1006E000883C910571F0A1E08C329A0719F50EC093
:1006F000B1E0843F9B07A1F0E2E088359E07D1F48A
:1007000014C0CE0101966EE870E013C0CE010196D0
:1007100060E970E00EC0CE01019662E970E009C0A8
:10072000CE01019664E970E004C0CE01019666E94D
:1007300070E053D0CE0101967DDD60960FB6F8943F
:10074000DEBF0FBECDBFCF91DF911F910F910895F6
:100750002FEF8E3F9207B9F02FEF8F3F92072CF4C7
:100760002FEF8A3F920784F005C08A30910560F42C
:1007700012DE0AC020919E0030919F0021153105A4
:1007800011F4D6DE01C07CDE05DF089597FB092E4B
:1007900007260AD077FD04D00CD006D000201AF42A
:1007A000709561957F4F0895F6F7909581959F4FCD
:1007B0000895AA1BBB1B51E107C0AA1FBB1FA617A8
:1007C000B70710F0A61BB70B881F991F5A95A9F7FA
:1007D00080959095BC01CD010895FB01DC0101904D
:1007E0000D920020E1F70895AEE0B0E0E9EFF3E00C
:1007F000C9C20D891E8986E08C831A8309838FEF15
:100800009FE79E838D839E01275E3F4FCE01019619
:100810006F89788DA90130D0EF81F885E00FF11F45
:1008200010822E96E4E0CAC2AEE0B0E0E9E1F4E066
:10083000A9C28C01CB01BA0146E04C831A8309831B
:1008400097FF02C080E090E801979E838D83CE01E0
:100850000196A90111D04D815E8157FD0AC02F81FB
:100860003885421753070CF49A01020F131FF80141
:1008700010822E96E4E0A2C2ACE0B0E0E1E4F4E045
:1008800073C26C011B018A01FC01178216828381ED
:1008900081FFC4C12E010894411C511CF6019381B3
:1008A000F10193FD859193FF81911F01882309F444
:1008B000B1C1853239F493FD859193FF81911F0178
:1008C000853221F490E0B601C5D1E8CFEE24FF24B3
:1008D00020E02032B0F48B3269F08C3228F4803280
:1008E00051F0833271F40BC08D3239F0803349F40A
:1008F00021602CC02260246029C0286027C02061AC
:1009000025C027FD2CC0382F30533A3098F426FFED
:1009100008C08E2D880FE82EEE0CEE0CE80EE30ECC
:1009200015C08F2D880FF82EFF0CFF0CF80EF30E5C
:1009300020620CC08E3221F426FD6CC1206406C0FA
:100940008C3611F4206802C0883649F4F10193FD19
:10095000859193FF81911F01882309F0BACF982FC9
:100960009554933018F09052933028F40C5F1F4F39
:10097000FFE3F9830DC0833631F0833771F083359F
:1009800009F05CC021C0F801808189830E5F1F4F90
:10099000420171E0A72EB12C15C062E0662E712CC9
:1009A000600E711EF8018080918026FF03C06E2DBD
:1009B00070E002C06FEF7FEFC4012C8740D15C0173
:1009C00083012C852F7716C052E0652E712C600EA6
:1009D000711EF8018080918026FF03C06E2D70E0AB
:1009E00002C06FEF7FEFC4012C871ED15C012C8504
:1009F0002068830123FD1EC007C080E290E0B6019D
:100A00002C8728D1FA942C858F2D90E0A816B90652
:100A1000A0F310C0F40127FD859127FF81914F01BC
:100A200090E0B6012C8716D12C85F110FA94089429
:100A3000A108B108A114B10469F7E9C0843611F026
:100A4000893641F527FF08C0F801608171818281F4
:100A500093810C5F1F4F09C0F80160817181882765
:100A600077FD8095982F0E5F1F4F4FE6B42EB22270
:100A700097FF09C090958095709561957F4F8F4F36
:100A80009F4FF0E8BF2AA2012AE030E00FD1782E74
:100A9000741844C0853731F43FEEB32EB2222AE0F9
:100AA00030E025C099EFB92EB2228F36C1F08037E1
:100AB00020F4883509F0AEC00DC0803721F08837AA
:100AC00009F0A8C002C020E1B22AB4FE0BC084E045
:100AD000B82A08C0B4FE09C0E6E0BE2A06C028E075
:100AE00030E005C020E130E002C020E132E0B7FE96
:100AF00008C0F80160817181828193810C5F1F4F72
:100B000007C0F8016081718180E090E00E5F1F4FA7
:100B1000A201CCD0782E7418FFE7BF22B6FE0BC01E
:100B20002EEFB2227E1438F4B4FE07C0B2FC05C02A
:100B30008FEEB82202C0A72C01C0AE2C8B2D90E006
:100B4000B4FE0DC0FE01E70DF11D2081203319F424
:100B5000E9EEBE2209C0A394B2FE06C004C08678A6
:100B60009070009709F0A3948B2C9924B3FC13C0C8
:100B7000B0FE0EC0AF1428F4E72CEF0CEA18AF2C2F
:100B800007C0E72C05C080E290E0B60163D0A394D3
:100B9000AF14C8F304C0AF1410F4FA1801C0FF2456
:100BA00084FE0EC080E390E0B60154D082FE1DC0EA
:100BB00081FE03C088E590E010C088E790E00DC09A
:100BC000C40186789070009781F081FC02C080E2B9
:100BD00001C08BE2B7FC8DE290E0B6013BD005C0CE
:100BE00080E390E0B60136D0EA947E14C8F37A949C
:100BF000F201E70DF11D808190E0B6012BD0772046
:100C0000B1F705C080E290E0B60124D0FA94FF204D
:100C1000C9F744CEF6012681378102C02FEF3FEF9E
:100C2000C9012C96E2E1BCC0FC0105906150704006
:100C30000110D8F7809590958E0F9F1F0895FC01A5
:100C40006150704001900110D8F7809590958E0FFB
:100C50009F1F08950F931F93CF93DF938C01EB0198
:100C60008B8181FF1BC082FF0DC02E813F818C8153
:100C70009D812817390764F4E881F9810193F9838C
:100C8000E88306C0E885F985802F0995009731F43F
:100C90008E819F8101969F838E8302C00FEF1FEF8D
:100CA000C801DF91CF911F910F910895FA01AA27F2
:100CB000283051F1203181F1E8946F936E7F6E5F9F
:100CC0007F4F8F4F9F4FAF4FB1E03ED0B4E03CD04D
:100CD000670F781F891F9A1FA11D680F791F8A1F30
:100CE000911DA11D6A0F711D811D911DA11D20D097
:100CF00009F468943F912AE0269F11243019305D51
:100D00003193DEF6CF010895462F4770405D419341
:100D1000B3E00FD0C9F7F6CF462F4F70405D4A338E
:100D200018F0495D31FD4052419302D0A9F7EACF56
:100D3000B4E0A6959795879577956795BA95C9F785
:100D400000976105710508959B01AC010A2E069478
:100D50005795479537952795BA95C9F7620F731F31
:100D6000841F951FA01D08952F923F924F925F926E
:100D70006F927F928F929F92AF92BF92CF92DF92AB
:100D8000EF92FF920F931F93CF93DF93CDB7DEB710
:100D9000CA1BDB0B0FB6F894DEBF0FBECDBF0994A4
:100DA0002A88398848885F846E847D848C849B84FB
:100DB000AA84B984C884DF80EE80FD800C811B8109
:100DC000AA81B981CE0FD11D0FB6F894DEBF0FBE38
:0A0DD000CDBFED010895F894FFCFA8
:100DDA00070008000900FAFF040005000600FBFFEF
:100DEA00010002000300FCFFFFFF0000FEFFFDFF01
:100DFA0000401454253136640025313564002B0037
:0A0E0A002D002A002F003D006400B7
:00000001FF
