:1000000093C0ADC0ACC0ABC0AAC0A9C0A8C0A7C0B7
:10001000A6C0A5C0A4C0A3C0A2C0A1C0A0C09FC0CC
:100020009EC09DC09CC06E616E00696E66000040FF
:100030007A10F35A00A0724E18090010A5D4E800F7
:1000400000E87648170000E40B54020000CA9A3B0F
:10005000000000E1F5050000809698000000404295
:100060000F000000A0860100000010270000000023
:10007000E803000000006400000000000A00000027
:1000800000000100000000002C76D888DC674F08D3
:1000900023DFC1DFAE59E1B1B796E5E3E453C63AD9
:1000A000E651997696E8E6C28426EB898C9B62ED50
:1000B000407C6FFCEFBC9C9F40F2BAA56FA5F4900A
:1000C000055A2AF75C936B6CF9676DC11BFCE0E481
:1000D0000D47FEF520E6B500D0ED902E03009435D7
:1000E00077050080841E080000204E0A000000C82A
:1000F0000C333333330F986E12831141EF8D21147B
:10010000893BE65516CFFEE6DB18D1844B381BF74A
:100110007C1D901DA4BBE424203284725E228100E9
:10012000C9F124ECA1E53D2711241FBECFE5D4E0A1
:10013000DEBFCDBF10E0A0E6B0E0EAEDF9E102C01D
:1001400005900D92AC3BB107D9F710E0ACEBB0E0F5
:1001500001C01D92A43DB107E1F702D03CCC50CFC5
:10016000AF92BF92CF92DF92EF92FF920F931F93C5
:10017000DF93CF93CDB7DEB7A6970FB6F894DEBF67
:100180000FBECDBF8FE087BBDE011596E0E6F0E045
:1001900080E201900D928150E1F78EEF89838DEF1F
:1001A0008A838BEF8B8387EF8C8304D1F7D08FD03A
:1001B00000E010E020E030E05E010894A11CB11CDA
:1001C00002C000E010E0F501E00FF11F808188BB64
:1001D000C8012DA33EA33DD16C0126D17C012DA1E8
:1001E0003EA181E0E816F10489F421153105A1F45E
:1001F0009FEFC9169FEFD90689F0F601EE0FFF1F9A
:10020000EA0DFB1D8481958157D406C0E114F104E9
:1002100029F420E030E002C021E030E08FE493ECEC
:100220000197F1F700C00000E114F10461F60F5FDF
:100230001F4F0430110539F6C4CF05C000006150CE
:100240007040804090406115710581059105B1F7BE
:100250000895949A6AE070E080E090E0EEDF949870
:1002600008950F931F93182F062F68EE73E080E018
:1002700090E0E3DF002311F0959A01C095988B9AE6
:100280008A9A899A889A909891989298939817FD4B
:10029000909A16FD919A15FD929A14FD939AD9DFC2
:1002A000909891989298939813FD909A12FD919A34
:1002B00011FD929A10FD939ACCDF939A929A919A9B
:1002C000909A1F910F91089560E0CBDF08951092EE
:1002D000BD001092BC0082E0F7DF0895662319F09C
:1002E000613031F403C08058EFDF08958054ECDFB3
:1002F0000895843030F4E82FF0E0E058FF4F90810B
:1003000001C090E08093BC001092BD00892F8058FE
:10031000DBDF08958A3061F48091BC009091BD00CC
:100320001816190614F480E001C08F5FE2DF08950B
:1003300061E097DF0895CF93DF93EC0101C0EADF1E
:1003400089918823E1F7DF91CF9108950F931F934F
:10035000DF93CF93CDB7DEB7C050D1400FB6F8943E
:10036000DEBF0FBECDBFFE01E95FFE4F419151914F
:100370008E010F5F1F4FC8016FEF70E09F01A5DA7C
:10038000C801D9DFC050DF4F0FB6F894DEBF0FBEF3
:10039000CDBFCF91DF911F910F9108951092BD00B5
:1003A0001092BC0081E090DF64EF71E080E090E0AB
:1003B00044DF08958D9A8C9A8B9A8A9A899A889AA2
:1003C00068EA71E680E090E038DF929A939A41DF24
:1003D00060ED77E080E090E030DF3BDF60E470E0EC
:1003E00080E090E02ADF939834DF60ED77E080E0F2
:1003F00090E023DF88E268DF2CDF60ED77E080E0CB
:1004000090E01BDF86E060DF24DF64EC79E080E0D1
:1004100090E013DF8CE058DF1CDF64EC79E080E0D3
:1004200090E00BDF54DF0895B49B0FC0B59B0DC067
:10043000B69B0BC026B3332727FD3095209530950A
:100440002227330F221F332702C021E030E0C901E9
:100450000895B49B03C02FEF3FEF02C020E030E0CF
:10046000B59902C021E030E0B69902C022E030E048
:10047000B79B05C04FEF2F3F340751F002C023E078
:1004800030E0220F331F220F331F280F391F02C005
:100490002FEF3FEFC9010895CF92DF92EF92FF92C5
:1004A0000F931F93CF93DF93EC01E090C400F09083
:1004B000C5000091C6001091C700C801B70120E037
:1004C00030E0A90109D7C090B900D090BA008823C4
:1004D00051F1C801B70120E030E040E251E41AD800
:1004E000F62E072F182FE92E762F272F302F412F8A
:1004F0005E2D2093C4003093C5004093C6005093F6
:10050000C700CC9DB001CD9D700DDC9D700D1124F8
:10051000882777FD8095982F4DD72F2D302F412F8D
:100520005E2DDED60CC0CC9DB001CD9D700DDC9D46
:10053000700D1124882777FD8095982F3BD7DF9188
:10054000CF911F910F91FF90EF90DF90CF90089582
:10055000CF92DF92EF92FF920F931F93CF93DF938F
:100560008C01CB0199DF6B017C01E801CC0FDD1F11
:10057000C054DF4F888199810097E1F4000F111F6B
:10058000000F111F08531F4F6091B9007091BA00FE
:10059000882777FD8095982F0DD7A7019601BAD7A8
:1005A000F801608371838283938381E090E0998373
:1005B00088832CC06091C4007091C5008091C600F2
:1005C0009091C70020E030E0A90186D6E801CC0F69
:1005D000DD1FCC0FDD1F882361F4C853DF4F688116
:1005E00079818A819B8120E030E040E251E492D71A
:1005F00006C0C853DF4F688179818A819B81A7013A
:10060000960106D6688379838A839B83DF91CF9195
:100610001F910F91FF90EF90DF90CF900895BC0154
:100620008091B7009091B8008130910521F082301F
:10063000910541F404C080E090E08ADF089581E0F4
:1006400090E086DF08958091BE009091BF008B32CC
:10065000910581F08C3291052CF48A32910509F0D4
:1006600058C02CC08D329105B9F08F32910509F038
:1006700050C036C06091C8007091C9008091CA0016
:100680009091CB002091CC003091CD004091CE00D4
:100690005091CF00BDD535C06091C8007091C900A0
:1006A0008091CA009091CB002091CC003091CD0078
:1006B0004091CE005091CF00AAD523C06091C800D0
:1006C0007091C9008091CA009091CB002091CC001C
:1006D0003091CD004091CE005091CF001BD711C07A
:1006E0006091C8007091C9008091CA009091CB00C0
:1006F0002091CC003091CD004091CE005091CF00A0
:10070000EFD56093D0007093D1008093D200909386
:10071000D30083E090E09093B8008093B7000895F1
:10072000CF93DF93EC018091B7009091B8008330B4
:10073000910541F08091C2009091C30081309105F4
:1007400009F481DF8091B7009091B8008330910562
:10075000F9F48091D0009091D100A091D200B09195
:10076000D3008093C8009093C900A093CA00B093AF
:10077000CB0080E090E0DC018093CC009093CD0032
:10078000A093CE00B093CF001092C3001092C2008D
:100790008FEFCB3FD80729F18FEFCC3FD8072CF450
:1007A0008FEFCA3FD80731F51FC08FEFCC3FD80776
:1007B00039F08FEFCD3FD807E9F48BE290E016C017
:1007C0008091C0009091C1008130910519F48DE2B3
:1007D00090E00CC08FEF9FEF9093BA008093B90028
:1007E00009C08AE290E002C08FE290E09093BF00DF
:1007F0008093BE002091C0003091C10021303105AE
:10080000A9F482E090E09093B8008093B70080E074
:1008100090E0DC018093C4009093C500A093C600D3
:10082000B093C7003093BA002093B900DF91CF9105
:1008300008950F931F93DF93CF93CDB7DEB76097E3
:100840000FB6F894DEBF0FBECDBF8E010F5F1F4FF6
:1008500080E1D8011D928A95E9F78091B7009091C7
:10086000B8008330910509F472C08091C000909166
:10087000C1008130910569F580E060E02FDDEDB7C2
:10088000FEB738970FB6F894FEBF0FBEEDBF319696
:10089000ADB7BEB712961C930E93119784E890E003
:1008A000938382838091C8009091C900A091CA006F
:1008B000B091CB0084839583A683B783E6D7EDB749
:1008C000FEB738960FB6F894FEBF0FBEEDBFC80155
:1008D00032DD81E061E002DD2091C2003091C30091
:1008E000CE0101962130310561F52DB73EB7285074
:1008F00030400FB6F8943EBF0FBE2DBFEDB7FEB728
:100900003196ADB7BEB712969C938E9311978CE833
:1009100090E0938382838091CC009091CD00A09150
:10092000CE00B091CF0084839583A683B783ADD7E3
:10093000EDB7FEB738960FB6F894FEBF0FBEEDBF09
:1009400003C064E970E063D7CE01019671C080E016
:1009500060E0C4DC2DB73EB72E5030400FB6F8949F
:100960003EBF0FBE2DBFEDB7FEB73196ADB7BEB7D8
:1009700012961C930E93119784EA90E093838283DE
:100980008091C8009091C900A091CA00B091CB009D
:1009900084839583A683B7838091BE009091BF0026
:1009A000918780878091CC009091CD00A091CE005E
:1009B000B091CF0082879387A487B58766D7EDB7BC
:1009C000FEB73E960FB6F894FEBF0FBEEDBFC8014E
:1009D000B2DC81E061E082DC2DB73EB728503040C8
:1009E0000FB6F8943EBF0FBE2DBFEDB7FEB73196E0
:1009F000ADB7BEB712961C930E9311978CE890E09A
:100A0000938382838091D0009091D100A091D200F5
:100A1000B091D30084839583A683B78336D7EDB78F
:100A2000FEB738960FB6F894FEBF0FBEEDBFC801F3
:100A300082DC80E061E052DC8091B7009091B800E8
:100A40008330910541F48E010F5F1F4FC80162EBA7
:100A500070E0DDD624C08091BE009091BF00009769
:100A600001F100D000D000D0EDB7FEB731968E0175
:100A70000F5F1F4FADB7BEB712961C930E93119721
:100A800024EB30E03383228395838483FED6EDB755
:100A9000FEB736960FB6F894FEBF0FBEEDBFC80185
:100AA0004ADC60960FB6F894DEBF0FBECDBFCF9183
:100AB000DF911F910F9108952FEF8E3F920769F1FB
:100AC0002FEF8F3F92072CF42FEF8A3F9207B4F15C
:100AD00034C02FEF8F3F920729F08A30910574F5CB
:100AE0009EDD2CC06091C4007091C5008091C6004D
:100AF0009091C70020E030E0A901EED38823F1F403
:100B000080E090E0A0E8BFE38093C4009093C5002C
:100B1000A093C600B093C70011C08091C00090910F
:100B2000C1008130910551F48091C2009091C300C1
:100B30008130910519F487DD01C0F2DD7ADE089578
:100B4000A3E1B0E0E5EAF5E048C56C017F876E8778
:100B5000FC0117821682838181FD04C052C34C853B
:100B60005D8504C01E010894211C311CF60193818F
:100B7000EE85FF8593FD859193FF8191FF87EE8739
:100B8000882309F43AC3853241F493FD859193FF9C
:100B90008191FF87EE87853251F490E0B6014A8B50
:100BA0005B8B47D64A895B895D874C87D8CF10E03D
:100BB000FF2400E00032B0F48B3269F08C3228F46C
:100BC000803251F0833271F40BC08D3239F08033B2
:100BD00049F401602CC00260046029C0086027C08D
:100BE000006125C007FD2EC0282F20532A3098F41D
:100BF00006FF08C0812F880F182F110F110F180F33
:100C0000120F15C08F2D880FF82EFF0CFF0CF80E59
:100C1000F20E00620CC08E3221F406FDEEC20064BA
:100C200006C08C3611F4006802C0883659F4EE858F
:100C3000FF8593FD859193FF8191FF87EE87882340
:100C400009F0B8CF982F9554933018F40061805E66
:100C500006C0982F9556933008F08BC10F7E06FF83
:100C600016E06FE3E62EE022853619F4F0E4EF2A71
:100C700007C0863619F420E8E22A02C0111111508B
:100C8000E7FE06C01C3340F4912E939427E00BC07E
:100C9000183030F4212F06C027E03CE3932E03C028
:100CA00027E017E09924CA0104969D878C87FA01F2
:100CB0006081718182819381A101092DC5D45C017C
:100CC0006980262D30E0398B288B60FE03C038897F
:100CD00033FF06C0E1FC06C0E2FE06C000E205C02C
:100CE0000DE203C00BE201C000E0888999898C7095
:100CF00090700097A9F1002311F084E001C083E017
:100D00008F1550F4F81AE3FC08C080E290E0B601B9
:100D100090D5FA94D1F701C0FF24002321F0802F51
:100D200090E0B60186D5888983FD03C00AE210E011
:100D30000DC006E210E00AC0A114B10409F080520F
:100D400090E0B60176D50F5F1F4F05C0AE2CBB24D7
:100D500090E1A922BB24F8018491882369F74AC253
:100D6000E7FE0EC09A0CF889F4FF04C08A81813333
:100D700009F49A94191454F5292D293050F52DC0F1
:100D8000E6FC2BC0812F90E08A159B054CF03CEFD0
:100D9000A3163FEFB30624F080E8E82A01C0115003
:100DA000112349F0E2E0F0E0EC0FFD1FE10FF11D2F
:100DB00080818033A1F3E7FE10C0912E9394812FA0
:100DC00090E0A816B90644F41A1907C09924939420
:100DD00004C098E0992E01C010E0E7FE07C01A1485
:100DE0001B043CF495012F5F3F4F05C025E030E028
:100DF00002C021E030E0002311F02F5F3F4F1123AC
:100E000029F0812F90E00196280F391F8F2D90E057
:100E10002817390714F4F21A01C0FF244E2C552468
:100E2000C20189709070009741F405C080E290E0A3
:100E3000B601FFD4FA94FF20C9F7002321F0802FD8
:100E400090E0B601F6D443FC08C005C080E390E012
:100E5000B601EFD4FA94FF20C9F7E7FE44C035018C
:100E6000B7FE02C06624772425010894411C511C5A
:100E700046185708420C531CF501E919F1094F01B6
:100E8000812F90E000271127081B190BFFEF6F1629
:100E9000FFEF7F0621F48EE290E0B601CAD4A614DB
:100EA000B70434F0861497041CF4F201808101C069
:100EB00080E30894610871080894411C511C601675
:100EC000710624F090E0B601B4D4E0CF6A147B043C
:100ED00041F49A81963320F4953319F4F889F4FF9C
:100EE00081E390E043C08A81813311F02FEE6222CA
:100EF00090E0B6019ED4112379F08EE290E0B60125
:100F000098D402E0F101E00FF11D0F5F808190E0C5
:100F1000B6018FD41150B1F744FE03C085E490E0D0
:100F200002C085E690E0B60184D4B7FC05C0A114E8
:100F3000B10441F464FE06C0B094A194B108B39426
:100F40008DE201C08BE290E0B60173D480E305C06E
:100F50008F5FE6EFFFEFAE0EBF1EFAE0AF16B104F3
:100F6000BCF790E0B60165D4C501C096B60161D466
:100F700041C1833631F0833789F0833509F055C09C
:100F800021C09A012E5F3F4F3D872C87FA01808157
:100F90008983310181E0A82EB12C12C09A012E5F05
:100FA0003F4F3D872C87FA016080718006FF03C0A8
:100FB000612F70E002C06FEF7FEFC3012FD45C019F
:100FC0000F7713C09A012E5F3F4F3D872C87FA01A0
:100FD0006080718006FF03C0612F70E002C06FEF78
:100FE0007FEFC30109D45C01006803FD1AC005C08E
:100FF00080E290E0B6011DD4FA948F2D90E0A816FF
:10100000B906B0F30EC0F30107FD859107FF81918A
:101010003F0190E0B6010DD4F110FA940894A108B4
:10102000B108A114B10479F7E5C0843611F089360E
:1010300059F507FF0BC09A012C5F3F4F3D872C8766
:10104000FA0160817181828193810CC09A012E5FC7
:101050003F4F3D872C87FA0160817181882777FD9A
:101060008095982F0F7697FF08C090958095709582
:1010700061957F4F8F4F9F4F0068A1012AE030E0BC
:101080004CD4982E921840C0853721F40F7E2AE068
:1010900030E020C0097F8F36A9F0803720F48835F2
:1010A00009F0ABC00BC0803721F0883709F0A5C02C
:1010B00001C0006104FF09C0046007C004FF08C04C
:1010C000066006C028E030E005C020E130E002C044
:1010D00020E132E007FF0AC0CA0104969D878C8791
:1010E000FA01608171818281938109C0CA010296EF
:1010F0009D878C87FA016081718180E090E0A10179
:101100000CD4982E92180F7706FF09C00E7F911607
:1011100030F404FF06C002FD04C00F7E02C0E92CBB
:1011200001C0E12E802F90E004FF0CC0FE01E90D0C
:10113000F11D2081203311F4097E09C0E39402FFE0
:1011400006C004C086789070009709F0E394A02E42
:10115000BB2403FD13C000FF0EC0EF1428F4192DAB
:101160001F0D1E19EF2C07C0192D05C080E290E05D
:10117000B6015FD3E394EF14C8F304C0EF1410F486
:10118000FE1801C0FF24A4FE0EC080E390E0B6016B
:1011900050D3A2FE1DC0A1FE03C088E590E010C0A0
:1011A00088E790E00DC0C50186789070009781F0C7
:1011B000A1FC02C080E201C08BE207FD8DE290E05D
:1011C000B60137D305C080E390E0B60132D31150A9
:1011D0009116C8F39A94F101E90DF11D808190E018
:1011E000B60127D39920B1F705C080E290E0B6019F
:1011F00020D3FA94FF20C9F7B2CCF60126813781BB
:1012000002C02FEF3FEFC9016396E2E102C25058DE
:10121000BB27AA270ED044C135D130F03AD120F0F7
:1012200031F49F3F11F41EF42AC10EF4E095E7FB60
:1012300020C1E92F46D180F3BA17620773078407EC
:10124000950718F071F49EF55EC10EF4E0950B2E33
:10125000BA2FA02D0B01B90190010C01CA01A00108
:101260001124FF27591B99F0593F50F4503E68F163
:101270001A16F040A22F232F342F4427585FF3CFA4
:10128000469537952795A795F0405395C9F77EF475
:101290001F16BA0B620B730B840BBAF09150A1F0BE
:1012A000FF0FBB1F661F771F881FC2F70EC0BA0F44
:1012B000621F731F841F48F4879577956795B795CC
:1012C000F7959E3F08F0B3CF9395880F08F09927C4
:1012D000EE0F979587950895A8D008F481E00895BA
:1012E0000CD0DEC0D6D040F0CDD030F021F45F3F3E
:1012F00019F0BFC0511108C1C2C0E3D098F39923BF
:10130000C9F35523B1F3951B550BBB27AA276217C9
:101310007307840738F09F5F5F4F220F331F441F0E
:10132000AA1FA9F333D00E2E3AF0E0E830D0915046
:101330005040E695001CCAF729D0FE2F27D0660F33
:10134000771F881FBB1F261737074807AB07B0E872
:1013500009F0BB0B802DBF01FF2793585F4F2AF088
:101360009E3F510568F085C0CFC05F3FECF3983ECB
:10137000DCF3869577956795B795F7959F5FC9F7E5
:10138000880F911D9695879597F90895E1E0660F6E
:10139000771F881FBB1F621773078407BA0720F0E7
:1013A000621B730B840BBA0BEE1F88F7E095089550
:1013B000E89409C097FB3EF49095809570956195EF
:1013C0007F4F8F4F9F4F9923A9F0F92F96E9BB27A5
:1013D0009395F695879577956795B795F111F8CF21
:1013E000FAF4BB0F11F460FF1BC06F5F7F4F8F4F8C
:1013F0009F4F16C0882311F096E911C0772321F082
:101400009EE8872F762F05C0662371F096E8862F19
:1014100070E060E02AF09A95660F771F881FDAF770
:10142000880F9695879597F90895990F0008550F9D
:10143000AA0BE0E8FEEF16161706E807F907C0F05A
:1014400012161306E407F50798F0621B730B840B62
:10145000950B39F40A2661F0232B242B252B21F43C
:1014600008950A2609F4A140A6958FEF811D811DDC
:10147000089597F99F6780E870E060E008959FEF16
:1014800080EC089500240A9416161706180609061B
:10149000089500240A9412161306140605060895EA
:1014A000092E0394000C11F4882352F0BB0F40F472
:1014B000BF2B11F460FF04C06F5F7F4F8F4F9F4FB2
:1014C000089557FD9058440F551F59F05F3F71F034
:1014D0004795880F97FB991F61F09F3F79F087959B
:1014E0000895121613061406551FF2CF4695F1DF24
:1014F00008C0161617061806991FF1CF86957105B4
:10150000610508940895E894BB2766277727CB01E7
:1015100097F908950BD0C4CFB5DF28F0BADF18F0E3
:10152000952309F0A6CFABCF1124EECFCADFA0F3ED
:10153000959FD1F3950F50E0551F629FF001729F68
:10154000BB27F00DB11D639FAA27F00DB11DAA1F87
:10155000649F6627B00DA11D661F829F2227B00DD4
:10156000A11D621F739FB00DA11D621F839FA00D5F
:10157000611D221F749F3327A00D611D231F849FAF
:10158000600D211D822F762F6A2F11249F57504006
:101590008AF0E1F088234AF0EE0FFF1FBB1F661FA1
:1015A000771F881F91505040A9F79E3F510570F05A
:1015B00060CFAACF5F3FECF3983EDCF3869577953A
:1015C0006795B795F795E7959F5FC1F7FE2B880F55
:1015D000911D9695879597F908952F923F924F9276
:1015E0005F926F927F928F929F92AF92BF92CF92B3
:1015F000DF92EF92FF920F931F93CF93DF93CDB7BC
:10160000DEB7CA1BDB0B0FB6F894DEBF0FBECDBF33
:1016100009942A88398848885F846E847D848C8404
:101620009B84AA84B984C884DF80EE80FD800C810D
:101630001B81AA81B981CE0FD11D0FB6F894DEBFF0
:101640000FBECDBFED010895283008F027E0332705
:10165000DA01990F311D87FD9160009661057105D2
:1016600039F432602E5F3D9330E32A95E1F7089517
:101670009F3F30F080387105610509F03C5F3C5FA9
:101680003D93913008F08068911DDF93CF931F93B5
:101690000F93FF92EF92192F987F9695E92F9695C9
:1016A0009695E90FFF27E857FF4F99273327EE2438
:1016B000FF24A701E70105900894079428F4360F4A
:1016C000E71EF81E491F511D660F771F881F991FBF
:1016D0000694A1F70590079428F4E70EF81E491F19
:1016E000561FC11D770F881F991F661F0694A1F70B
:1016F0000590079428F4F80E491F561FC71FD11DE7
:10170000880F991F661F771F0694A1F7059007940D
:1017100020F4490F561FC71FD81F990F661F771F48
:10172000881F0694A9F784911095177041F0D695FB
:10173000C79557954795F794E7941A95C1F7EEE248
:10174000F0E068941590159135916591959105900B
:101750007FE27395E118F10A430B560BC90BD009D0
:10176000C0F7E10CF11E431F561FC91FD01D7EF4A8
:10177000703311F48A95E6CFE894015030F0080FE9
:101780000AF40027021708F4202F2395022F7A333A
:1017900028F079E37D932A95E9F710C07D932A9587
:1017A00089F6069497956795379517951794E118DC
:1017B000F10A430B560BC90BD00998F023957E9183
:1017C00073957A3308F070E37C932013B8F77E9119
:1017D00070617D9330F0839571E37D9370E32A957A
:1017E000E1F71124EF90FF900F911F91CF91DF91BE
:1017F000992787FD90950895FC01059061507040F0
:101800000110D8F7809590958E0F9F1F0895FB01CA
:10181000DC0101900D920020E1F70895FC01615078
:10182000704001900110D8F7809590958E0F9F1F02
:1018300008950F931F93CF93DF938C01EB018B815E
:1018400081FF1BC082FF0DC02E813F818C819D8155
:101850002817390764F4E881F9810193F983E88353
:1018600006C0E885F985802F0995009731F48E81AF
:101870009F8101969F838E8302C00FEF1FEFC801E7
:10188000DF91CF911F910F910895AEE0B0E0EAE4AF
:10189000FCE0B1CE0D891E8986E08C831A83098312
:1018A0008FEF9FE79E838D839E01275E3F4FCE0182
:1018B00001966F89788DA90143D9EF81F885E00FF2
:1018C000F11F10822E96E4E0B2CEAEE0B0E0EAE680
:1018D000FCE091CE8C01CB01BA0146E04C831A8327
:1018E000098397FF02C080E090E801979E838D8373
:1018F000CE010196A90124D94D815E8157FD0AC010
:101900002F813885421753070CF49A01020F131FD9
:10191000F80110822E96E4E08ACEFA01AA27283038
:1019200051F1203181F1E8946F936E7F6E5F7F4FAC
:101930008F4F9F4FAF4FB1E03ED0B4E03CD0670F28
:10194000781F891F9A1FA11D680F791F8A1F911D7B
:10195000A11D6A0F711D811D911DA11D20D009F4CB
:1019600068943F912AE0269F11243019305D31930D
:10197000DEF6CF010895462F4770405D4193B3E0F6
:101980000FD0C9F7F6CF462F4F70405D4A3318F09D
:10199000495D31FD4052419302D0A9F7EACFB4E04E
:1019A000A6959795879577956795BA95C9F7009706
:1019B0006105710508959B01AC010A2E06945795A7
:1019C000479537952795BA95C9F7620F731F841FFE
:0A19D000951FA01D0895F894FFCFA5
:1019DA00070008000900FAFF040005000600FBFFE3
:1019EA00010002000300FCFFFFFF0000FEFFFDFFF5
:1019FA00004014542531362E313067002531352EFA
:101A0A003130670020202020202020202020202084
:101A1A00202020002025372E3267256325372E32D5
:0C1A2A0067003D00256300010001000082
:00000001FF
