:1000000093C0ADC0ACC0ABC0AAC0A9C0A8C0A7C0B7
:10001000A6C0A5C0A4C0A3C0A2C0A1C0A0C09FC0CC
:100020009EC09DC09CC06E616E00696E66000040FF
:100030007A10F35A00A0724E18090010A5D4E800F7
:1000400000E87648170000E40B54020000CA9A3B0F
:10005000000000E1F5050000809698000000404295
:100060000F000000A0860100000010270000000023
:10007000E803000000006400000000000A00000027
:1000800000000100000000002C76D888DC674F08D3
:1000900023DFC1DFAE59E1B1B796E5E3E453C63AD9
:1000A000E651997696E8E6C28426EB898C9B62ED50
:1000B000407C6FFCEFBC9C9F40F2BAA56FA5F4900A
:1000C000055A2AF75C936B6CF9676DC11BFCE0E481
:1000D0000D47FEF520E6B500D0ED902E03009435D7
:1000E00077050080841E080000204E0A000000C82A
:1000F0000C333333330F986E12831141EF8D21147B
:10010000893BE65516CFFEE6DB18D1844B381BF74A
:100110007C1D901DA4BBE424203284725E228100E9
:10012000C9F124ECA1E53D2711241FBECFE5D4E0A1
:10013000DEBFCDBF11E0A0E6B0E0E6E9FAE102C023
:1001400005900D92A439B107D9F711E0A4E9B1E007
:1001500001C01D92A23AB107E1F702D09ACC50CF6C
:10016000AF92BF92CF92DF92EF92FF920F931F93C5
:10017000DF93CF93CDB7DEB7A6970FB6F894DEBF67
:100180000FBECDBF8FE087BBDE011596E0E6F0E045
:1001900080E201900D928150E1F78EEF89838DEF1F
:1001A0008A838BEF8B8387EF8C8305D1F8D090D037
:1001B00000E010E020E030E05E010894A11CB11CDA
:1001C00002C000E010E0F501E00FF11F808188BB64
:1001D000C8012DA33EA33ED16C0127D17C012DA1E6
:1001E0003EA181E0E816F10491F421153105A9F44E
:1001F0009FEFC9169FEFD90691F0F601EE0FFF1F92
:10020000EA0DFB1D8481958192D199D106C0E1143C
:10021000F10429F420E030E002C021E030E08FE476
:1002200093EC0197F1F700C00000E114F10459F6D6
:100230000F5F1F4F0430110531F6C3CF05C000001A
:1002400061507040804090406115710581059105B5
:10025000B1F70895959A6AE070E080E090E0EEDFF3
:10026000959808950F931F93182F062F68EE73E04B
:1002700080E090E0E3DF002311F0949A01C09498AD
:10028000889A899A8A9A8B9A93989298919890983A
:1002900017FD939A16FD929A15FD919A14FD909A66
:1002A000D9DF939892989198909813FD939A12FDA4
:1002B000929A11FD919A10FD909ACCDF909A919AA2
:1002C000929A939A1F910F91089560E0CBDF089561
:1002D000109295011092940182E0F7DF0895662351
:1002E00019F0613031F403C08058EFDF0895805475
:1002F000ECDF0895843030F4E82FF0E0E058FF4F51
:10030000908101C090E08093940110929501892F13
:100310008058DBDF08958A3061F4809194019091D8
:1003200095011816190614F480E001C08F5FE2DF12
:10033000089561E097DF0895CF93DF93EC0101C04A
:10034000EADF89918823E1F7DF91CF9108950F9338
:100350001F93DF93CF93CDB7DEB7C050D1400FB618
:10036000F894DEBF0FBECDBFFE01E95FFE4F4191A5
:1003700051918E010F5F1F4FC8016FEF70E09F0119
:1003800002DBC801D9DFC050DF4F0FB6F894DEBFE3
:100390000FBECDBFCF91DF911F910F9108951092A5
:1003A00095011092940181E090DF64EF71E080E0AC
:1003B00090E044DF08958C9A8D9A889A899A8A9A57
:1003C0008B9A68EA71E680E090E038DF919A909A23
:1003D00041DF60ED77E080E090E030DF3BDF60E41C
:1003E00070E080E090E02ADF909834DF60ED77E005
:1003F00080E090E023DF88E268DF2CDF60ED77E0CB
:1004000080E090E01BDF86E060DF24DF64EC79E0D1
:1004100080E090E013DF8CE058DF1CDF64EC79E0D3
:1004200080E090E00BDF54DF0895B49B0FC0B59BD4
:100430000DC0B69B0BC026B3332727FD3095209502
:1004400030952227330F221F332702C021E030E0EE
:10045000C9010895B49B03C02FEF3FEF02C020E015
:1004600030E0B59902C021E030E0B69902C022E048
:1004700030E0B79B05C04FEF2F3F340751F002C06B
:1004800023E030E0220F331F220F331F280F391FC4
:1004900002C02FEF3FEFC9010895AF92BF92CF92F4
:1004A000DF92EF92FF920F931F935C0180918A007D
:1004B00090918B008436910589F5E0909601F0903B
:1004C00097010091980110919901C801B70120E0AE
:1004D00030E0A90110D3CC24B7FCC094DC2C8823D5
:1004E00021F4C601B50132D311C0C801B70120E023
:1004F00030E040E251E40AD27B018C01C601B50133
:1005000025D39B01AC01C801B701AED16093960120
:100510007093970180939801909399011F910F9187
:10052000FF90EF90DF90CF90BF90AF9008958A300A
:10053000910508F4B2DF08950895089508950F9382
:100540001F93DF93CF93CDB7DEB7CF5FD0400FB609
:10055000F894DEBF0FBECDBF8E010F5F1F4F8FEF30
:10056000D8011D928A95E9F71ADFB2DEEDB7FEB722
:1005700038970FB6F894FEBF0FBEEDBF3196ADB7FA
:10058000BEB712961C930E93119784E890E0938364
:1005900082838091960190919701A0919801B091EA
:1005A000990184839583A683B783CDD9EDB7FEB730
:1005B00038960FB6F894FEBF0FBEEDBFC801BCDE83
:1005C000C150DF4F0FB6F894DEBF0FBECDBFCF9145
:1005D000DF911F910F910895A0E0B0E0E1EFF2E00C
:1005E00065C8FC01EA018081823008F438C1DB0172
:1005F0009C91923008F430C1843059F4943009F061
:100600002EC1918111968C911197981709F021C1F3
:1006100026C1943009F420C19230B1F4823009F03F
:100620001EC1CA01AF0128E0DA010D90AD01DC0165
:100630000D92CD012150C1F7DB0111968C911197DC
:100640009181892389830AC1823009F405C1C2805E
:10065000D380DB0112966D907C90139724813581B5
:10066000468157811496ED90FD900D911C9117973E
:10067000C601861997095C0197FF04C0AA24BB2410
:10068000A81AB90AB0E2AB16B1040CF061C0181692
:1006900019066CF5370148010A2C04C0969487941A
:1006A000779467940A94D2F781E090E0A0E0B0E0FC
:1006B0000A2C04C0880F991FAA1FBB1F0A94D2F7E7
:1006C0000197A109B1098E219F21A023B123EE2416
:1006D000FF248701E3940097A105B10519F4EE24E6
:1006E000FF248701E628F728082919293CC000972C
:1006F000D1F1CA0CDB1C39014A010A2C04C09694C2
:100700008794779467940A94D2F781E090E0A0E010
:10071000B0E00A2C04C0880F991FAA1FBB1F0A94BF
:10072000D2F70197A109B10982239323A423B5230A
:1007300021E030E040E050E00097A105B10519F458
:1007400020E030E0A90126293729482959290BC082
:100750006C147D0424F4EE24FF24870104C063019B
:1007600020E030E0A9018181FB019181891709F422
:1007700045C0882349F0D801C701821B930BA40B05
:10078000B50B9C01AD0104C02E193F09400B510B64
:1007900057FD04C01982DB82CA820BC081E08983C5
:1007A000DB82CA8250954095309521953F4F4F4F3F
:1007B0005F4F2C833D834E835F830DC0880F991F4D
:1007C000AA1FBB1F8C839D83AE83BF838A819B81BD
:1007D00001979B838A838C819D81AE81BF819C011F
:1007E000AD0121503040404050402F3FEFEF3E07D9
:1007F000EFEF4E07EFE35E0708F30BC08983DB8260
:10080000CA822E0D3F1D401F511F2C833D834E83F6
:100810005F8383E088832C813D814E815F8157FF18
:100820001DC0DA01C90181709070A070B07056953A
:10083000479537952795822B932BA42BB52B8C832B
:100840009D83AE83BF838A819B8101969B838A832C
:1008500005C0ECE8F0E003C0FB0101C0FE01CF01E0
:10086000CDB7DEB7EEE03EC7A0E2B0E0E9E3F4E0EA
:1008700025C769837A838B839C832D833E834F8333
:10088000588789E0E82EF12CEC0EFD1ECE01019672
:10089000B701DFD28E010F5E1F4FCE010596B80162
:1008A000D8D2C701B801AE01475E5F4F95DE04D2D2
:1008B000A096E6E01FC7A0E2B0E0E0E6F4E0FEC6E6
:1008C00069837A838B839C832D833E834F835887F0
:1008D0008E01075F1F4FCE010196B801BAD291E198
:1008E000E92EF12CEC0EFD1ECE010596B701B1D21A
:1008F0008A8991E089278A8BC801B701AE01475EDA
:100900005F4F6ADED9D1A096E6E0F4C6A0E2B0E07F
:10091000EBE8F4E0C7C669837A838B839C832D83DD
:100920003E834F835887CE010196BE01675F7F4F9C
:1009300090D2CE010596BE016F5E7F4F8AD2998517
:10094000923078F089898230C0F0943019F4823086
:1009500041F4CBC0843019F4923079F4C6C092309F
:1009600051F481E02A859A89291709F480E08A8761
:10097000CE010996BCC0823051F481E02A859A8963
:10098000291709F480E08A8BCE014196B0C06D84AE
:100990007E848F849888ED88FE880F89188DE0E228
:1009A000F0E080E090E0DC01AA24BB24650120E0B7
:1009B00030E0A901B3016170707061157105D1F06B
:1009C0002E0D3F1D401F511F15012601280E391EF7
:1009D0004A1E5B1E81E090E0A0E0B0E02E153F05CE
:1009E0004007510718F080E090E0DC01820D931D74
:1009F000A41DB51DAA0CBB1CCC1CDD1C17FF09C017
:100A000061E0262E312C412C512CA228B328C42879
:100A1000D528319749F0EE0CFF1C001F111F96944A
:100A2000879477946794C6CF6B897C89EB85FC8526
:100A30006E0F7F1F6E5F7F4F7C8F6B8F61E0EA854B
:100A40007A89E71709F460E06A8F6B8D7C8D10C09E
:100A5000FC01E170F070309729F056954795379575
:100A600027955068B695A795979587956F5F7F4FA7
:100A7000B7FDEECF0CC0880F991FAA1FBB1F57FDF3
:100A80008160220F331F441F551F6150704080301A
:100A9000E0E09E07E0E0AE07E0E4BE0760F36B8FA6
:100AA0007C8F6FE7E62EF12C012D112DE822F92223
:100AB0000A231B2360E4E616F1040105110561F425
:100AC00087FD0AC0211531054105510529F0805CDB
:100AD0009F4FAF4FBF4F80788D8F9E8FAF8FB8A342
:100AE00083E0898FCE01499602C08CE890E0E4D083
:100AF000A096E2E1F3C5A8E1B0E0E0E8F5E0DEC5EC
:100B000069837A838B839C832D833E834F835887AD
:100B10008E01075F1F4FCE010196B8019AD181E186
:100B2000E82EF12CEC0EFD1ECE010596B70191D1F9
:100B30008985823038F08989823020F0C801B70178
:100B4000F1D101C081E06896E6E0D4C5A8E0B0E04C
:100B5000EBEAF5E0B3C57B018C0183E08983D80122
:100B6000C7018827B7FD83959927AA27BB27282F78
:100B70008A83E114F1040105110519F482E08983E7
:100B800036C08EE190E09C838B83222389F080E045
:100B9000E81680E0F80680E0080780E8180759F1B9
:100BA00010950095F094E094E11CF11C011D111DBD
:100BB000ED82FE820F831887C801B70123D09C0104
:100BC000215030401216130694F4022E04C0EE0C8D
:100BD000FF1C001F111F0A94D2F7ED82FE820F83C3
:100BE00018878EE190E0821B930B9C838B83CE0150
:100BF000019662D004C060E070E080E09FEC28962F
:100C0000E6E078C5AF92BF92CF92DF92EF92FF926B
:100C10000F931F937B018C0180E0E81680E0F806BB
:100C200081E0080780E0180758F4EFEFEE16F104B2
:100C30000105110509F090F480E090E0DC0117C097
:100C4000F0E0EF16F0E0FF06F0E00F07F1E01F071D
:100C500050F480E190E0A0E0B0E009C088E090E0CE
:100C6000A0E0B0E004C088E190E0A0E0B0E020E2C5
:100C700030E040E050E0281B390B4A0B5B0B57017A
:100C8000680104C0D694C794B794A7948A95D2F704
:100C9000D601C5018C569F4FFC018081281B31096C
:100CA00041095109C9011F910F91FF90EF90DF9009
:100CB000CF90BF90AF900895EF92FF920F931F9344
:100CC000CF93DF93FC012481358146815781618177
:100CD0008081823020F44061EFEFF0E0A3C08430E7
:100CE00009F49BC0823009F492C0211531054105F9
:100CF000510509F48FC00280F381E02D8FEFE238B7
:100D0000F8070CF05AC0C2E8DFEFCE1BDF0BCA3188
:100D1000D1056CF579018A010C2E04C01695079552
:100D2000F794E7940A94D2F781E090E0A0E0B0E075
:100D30000C2E04C0880F991FAA1FBB1F0A94D2F75C
:100D40000197A109B10982239323A423B52321E0AC
:100D500030E040E050E00097A105B10519F420E033
:100D600030E0A9012E293F29402B512B03C020E060
:100D700030E0A901DA01C9018F779070A070B070DE
:100D800080349105A105B10539F427FF09C0205C25
:100D90003F4F4F4F5F4F04C0215C3F4F4F4F5F4F5E
:100DA000E1E0F0E0203080E0380780E0480780E4B0
:100DB000580728F5E0E0F0E022C0E038F1056CF5D6
:100DC000E158FF4FDA01C9018F779070A070B070C1
:100DD00080349105A105B10539F427FF09C0205CD5
:100DE0003F4F4F4F5F4F04C0215C3F4F4F4F5F4F0E
:100DF00057FF05C05695479537952795319687E05B
:100E000056954795379527958A95D1F70BC0E0E021
:100E1000F0E005C0E0E0F0E005C0EFEFF0E020E03A
:100E200030E0A9018E2F879588278795942F9F778B
:100E3000679566276795E695E22EA92FA82BFE2FCA
:100E4000F62B622F732F8A2F9F2FCDB7DEB7E6E0E8
:100E500051C4DC01FB012C9111963C911197129623
:100E60008C911297482F4F7750E0982F991F992710
:100E7000991F13966C911397862F880F892B90E0FA
:100E8000661F6627661F6183009739F521153105B6
:100E90004105510511F482E029C082E89FEF938358
:100EA000828367E0220F331F441F551F6A95D1F7D5
:100EB00083E0808309C0220F331F441F551F8281A6
:100EC0009381019793838283203080E0380780E00C
:100ED000480780E4580778F320C08F3F910579F4E4
:100EE000211531054105510519F484E080830895E9
:100EF00044FF03C081E0808310C010820EC08F5772
:100F000090409383828383E0808387E0220F331FA6
:100F1000441F551F8A95D1F7506424833583468337
:100F200057830895FC01DB019081923008F449C099
:100F30008C91823008F445C0943051F46181843042
:100F4000B1F511962C91119730E0261B310941C063
:100F5000843021F0923041F48230B1F111968C91BD
:100F600011978823A1F12DC06181823001F1119682
:100F70008C9111976817D9F42281338112968D9143
:100F80009C9113978217930794F028173907BCF0A8
:100F9000248135814681578114968D919D910D90C4
:100FA000BC91A02D82179307A407B50718F46623F8
:100FB00041F00DC0281739074A075B0728F466235C
:100FC00031F021E030E005C020E030E002C02FEF3A
:100FD0003FEFC9010895A3E1B0E0E0EFF7E062C39D
:100FE0006C017F876E87FC0117821682838181FDE9
:100FF00004C052C34C855D8504C01E010894211CA9
:10100000311CF6019381EE85FF8593FD859193FF59
:101010008191FF87EE87882309F43AC3853241F432
:1010200093FD859193FF8191FF87EE87853251F47F
:1010300090E0B6014A8B5B8B5AD44A895B895D8705
:101040004C87D8CF10E0FF2400E00032B0F48B32A0
:1010500069F08C3228F4803251F0833271F40BC085
:101060008D3239F0803349F401602CC00260046095
:1010700029C0086027C0006125C007FD2EC0282FA9
:1010800020532A3098F406FF08C0812F880F182FAC
:10109000110F110F180F120F15C08F2D880FF82E7A
:1010A000FF0CFF0CF80EF20E00620CC08E3221F421
:1010B00006FDEEC2006406C08C3611F4006802C062
:1010C000883659F4EE85FF8593FD859193FF8191D4
:1010D000FF87EE87882309F0B8CF982F9554933077
:1010E00018F40061805E06C0982F9556933008F082
:1010F0008BC10F7E06FF16E06FE3E62EE0228536F9
:1011000019F4F0E4EF2A07C0863619F420E8E22A41
:1011100002C011111150E7FE06C01C3340F4912E9D
:10112000939427E00BC0183030F4212F06C027E03D
:101130003CE3932E03C027E017E09924CA010496EC
:101140009D878C87FA016081718182819381A101E1
:10115000092DDFD25C016980262D30E0398B288B88
:1011600060FE03C0388933FF06C0E1FC06C0E2FE22
:1011700006C000E205C00DE203C00BE201C000E0C2
:10118000888999898C7090700097A9F1002311F0DB
:1011900084E001C083E08F1550F4F81AE3FC08C026
:1011A00080E290E0B601A3D3FA94D1F701C0FF2406
:1011B000002321F0802F90E0B60199D3888983FD28
:1011C00003C00AE210E00DC006E210E00AC0A1145C
:1011D000B10409F0805290E0B60189D30F5F1F4F30
:1011E00005C0AE2CBB2490E1A922BB24F801849158
:1011F000882369F74AC2E7FE0EC09A0CF889F4FF0B
:1012000004C08A81813309F49A94191454F5292D64
:10121000293050F52DC0E6FC2BC0812F90E08A15B7
:101220009B054CF03CEFA3163FEFB30624F080E89B
:10123000E82A01C01150112349F0E2E0F0E0EC0F80
:10124000FD1FE10FF11D80818033A1F3E7FE10C087
:10125000912E9394812F90E0A816B90644F41A19A0
:1012600007C09924939404C098E0992E01C010E01F
:10127000E7FE07C01A141B043CF495012F5F3F4F93
:1012800005C025E030E002C021E030E0002311F08D
:101290002F5F3F4F112329F0812F90E00196280FF7
:1012A000391F8F2D90E02817390714F4F21A01C066
:1012B000FF244E2C5524C20189709070009741F490
:1012C00005C080E290E0B60112D3FA94FF20C9F77E
:1012D000002321F0802F90E0B60109D343FC08C021
:1012E00005C080E390E0B60102D3FA94FF20C9F76D
:1012F000E7FE44C03501B7FE02C06624772425010D
:101300000894411C511C46185708420C531CF50107
:10131000E919F1094F01812F90E000271127081BDF
:10132000190BFFEF6F16FFEF7F0621F48EE290E0BE
:10133000B601DDD2A614B70434F0861497041CF469
:10134000F201808101C080E308946108710808946B
:10135000411C511C6016710624F090E0B601C7D202
:10136000E0CF6A147B0441F49A81963320F49533DC
:1013700019F4F889F4FF81E390E043C08A81813356
:1013800011F02FEE622290E0B601B1D2112379F074
:101390008EE290E0B601ABD202E0F101E00FF11D68
:1013A0000F5F808190E0B601A2D21150B1F744FEE8
:1013B00003C085E490E002C085E690E0B60197D2D4
:1013C000B7FC05C0A114B10441F464FE06C0B0949A
:1013D000A194B108B3948DE201C08BE290E0B60114
:1013E00086D280E305C08F5FE6EFFFEFAE0EBF1E33
:1013F000FAE0AF16B104BCF790E0B60178D2C501AF
:10140000C096B60174D241C1833631F0833789F07A
:10141000833509F055C021C09A012E5F3F4F3D87AB
:101420002C87FA0180818983310181E0A82EB12CBB
:1014300012C09A012E5F3F4F3D872C87FA016080D2
:10144000718006FF03C0612F70E002C06FEF7FEF75
:10145000C30142D25C010F7713C09A012E5F3F4F48
:101460003D872C87FA016080718006FF03C0612FE1
:1014700070E002C06FEF7FEFC30123D25C01006810
:1014800003FD1AC005C080E290E0B60130D2FA94A4
:101490008F2D90E0A816B906B0F30EC0F30107FD3A
:1014A000859107FF81913F0190E0B60120D2F110B4
:1014B000FA940894A108B108A114B10479F7E5C021
:1014C000843611F0893659F507FF0BC09A012C5F5D
:1014D0003F4F3D872C87FA01608171818281938122
:1014E0000CC09A012E5F3F4F3D872C87FA01608127
:1014F0007181882777FD8095982F0F7697FF08C018
:1015000090958095709561957F4F8F4F9F4F0068A4
:10151000A1012AE030E05FD2982E921840C08537B2
:1015200021F40F7E2AE030E020C0097F8F36A9F039
:10153000803720F4883509F0ABC00BC0803721F02C
:10154000883709F0A5C001C0006104FF09C004602C
:1015500007C004FF08C0066006C028E030E005C0F0
:1015600020E130E002C020E132E007FF0AC0CA01FA
:1015700004969D878C87FA016081718182819381B5
:1015800009C0CA0102969D878C87FA01608171812A
:1015900080E090E0A1011FD2982E92180F7706FFED
:1015A00009C00E7F911630F404FF06C002FD04C08E
:1015B0000F7E02C0E92C01C0E12E802F90E004FFD5
:1015C0000CC0FE01E90DF11D2081203311F4097ECC
:1015D00009C0E39402FF06C004C0867890700097AB
:1015E00009F0E394A02EBB2403FD13C000FF0EC03E
:1015F000EF1428F4192D1F0D1E19EF2C07C0192DFB
:1016000005C080E290E0B60172D1E394EF14C8F314
:1016100004C0EF1410F4FE1801C0FF24A4FE0EC095
:1016200080E390E0B60163D1A2FE1DC0A1FE03C01D
:1016300088E590E010C088E790E00DC0C50186788D
:101640009070009781F0A1FC02C080E201C08BE2A3
:1016500007FD8DE290E0B6014AD105C080E390E03D
:10166000B60145D111509116C8F39A94F101E90DD4
:10167000F11D808190E0B6013AD19920B1F705C003
:1016800080E290E0B60133D1FA94FF20C9F7B2CCE2
:10169000F6012681378102C02FEF3FEFC901639623
:1016A000E2E11CC02F923F924F925F926F927F9225
:1016B0008F929F92AF92BF92CF92DF92EF92FF9262
:1016C0000F931F93CF93DF93CDB7DEB7CA1BDB0B0E
:1016D0000FB6F894DEBF0FBECDBF09942A883988B3
:1016E00048885F846E847D848C849B84AA84B984BA
:1016F000C884DF80EE80FD800C811B81AA81B981C6
:10170000CE0FD11D0FB6F894DEBF0FBECDBFED01D9
:101710000895283008F027E03327DA01990F311DAA
:1017200087FD916000966105710539F432602E5F86
:101730003D9330E32A95E1F708959F3F30F08038DC
:101740007105610509F03C5F3C5F3D93913008F005
:101750008068911DDF93CF931F930F93FF92EF92B9
:10176000192F987F9695E92F96959695E90FFF2763
:10177000E857FF4F99273327EE24FF24A701E701FD
:1017800005900894079428F4360FE71EF81E491FA9
:10179000511D660F771F881F991F0694A1F70590AA
:1017A000079428F4E70EF81E491F561FC11D770F36
:1017B000881F991F661F0694A1F70590079428F4C7
:1017C000F80E491F561FC71FD11D880F991F661F8E
:1017D000771F0694A1F70590079420F4490F561F30
:1017E000C71FD81F990F661F771F881F0694A9F778
:1017F00084911095177041F0D695C79557954795E8
:10180000F794E7941A95C1F7EEE2F0E0689415902A
:10181000159135916591959105907FE27395E11849
:10182000F10A430B560BC90BD009C0F7E10CF11EAE
:10183000431F561FC91FD01D7EF4703311F48A95C3
:10184000E6CFE894015030F0080F0AF400270217A1
:1018500008F4202F2395022F7A3328F079E37D9323
:101860002A95E9F710C07D932A9589F606949795F5
:101870006795379517951794E118F10A430B560BA6
:10188000C90BD00998F023957E9173957A3308F0AF
:1018900070E37C932013B8F77E9170617D9330F0F4
:1018A000839571E37D9370E32A95E1F71124EF901E
:1018B000FF900F911F91CF91DF91992787FD909510
:1018C0000895FC010590615070400110D8F7809593
:1018D00090958E0F9F1F0895FC01615070400190FC
:1018E0000110D8F7809590958E0F9F1F08950F9344
:1018F0001F93CF93DF938C01EB018B8181FF1BC082
:1019000082FF0DC02E813F818C819D812817390770
:1019100064F4E881F9810193F983E88306C0E885DE
:10192000F985802F0995009731F48E819F8101966A
:101930009F838E8302C00FEF1FEFC801DF91CF910D
:101940001F910F910895AEE0B0E0E8EAFCE0B8CE58
:101950000D891E8986E08C831A8309838FEF9FE7A8
:101960009E838D839E01275E3F4FCE0101966F8936
:10197000788DA90130DBEF81F885E00FF11F10822F
:101980002E96E4E0B9CEAEE0B0E0E8ECFCE098CE14
:101990008C01CB01BA0146E04C831A83098397FF7F
:1019A00002C080E090E801979E838D83CE0101966E
:1019B000A90111DB4D815E8157FD0AC02F81388559
:1019C000421753070CF49A01020F131FF8011082FB
:1019D0002E96E4E091CEFA01AA27283051F1203169
:1019E00081F1E8946F936E7F6E5F7F4F8F4F9F4FB3
:1019F000AF4FB1E03ED0B4E03CD0670F781F891FF5
:101A00009A1FA11D680F791F8A1F911DA11D6A0FC2
:101A1000711D811D911DA11D20D009F468943F9175
:101A20002AE0269F11243019305D3193DEF6CF0174
:101A30000895462F4770405D4193B3E00FD0C9F73A
:101A4000F6CF462F4F70405D4A3318F0495D31FDA7
:101A50004052419302D0A9F7EACFB4E0A6959795FA
:101A6000879577956795BA95C9F7009761057105D0
:101A700008959B01AC010A2E06945795479537951A
:101A80002795BA95C9F7620F731F841F951FA01D74
:061A90000895F894FFCF59
:101A9600070008000900FAFF040005000600FBFF26
:101AA600010002000300FCFFFFFF0000FEFFFDFF38
:101AB6000040145425332E326600640000000000F6
:101AC60000000000000102020303030304040404EF
:101AD60004040404050505050505050505050505B4
:101AE6000505050506060606060606060606060694
:101AF6000606060606060606060606060606060680
:101B06000606060607070707070707070707070763
:101B1600070707070707070707070707070707074F
:101B2600070707070707070707070707070707073F
:101B3600070707070707070707070707070707072F
:101B46000707070708080808080808080808080813
:101B560008080808080808080808080808080808FF
:101B660008080808080808080808080808080808EF
:101B760008080808080808080808080808080808DF
:101B860008080808080808080808080808080808CF
:101B960008080808080808080808080808080808BF
:101BA60008080808080808080808080808080808AF
:101BB600080808080808080808080808080808089F
:041BC60008080808FB
:00000001FF
