:1000000093C0ADC0ACC0ABC0AAC0A9C0A8C0A7C0B7
:10001000A6C0A5C0A4C0A3C0A2C0A1C0A0C09FC0CC
:100020009EC09DC09CC06E616E00696E66000040FF
:100030007A10F35A00A0724E18090010A5D4E800F7
:1000400000E87648170000E40B54020000CA9A3B0F
:10005000000000E1F5050000809698000000404295
:100060000F000000A0860100000010270000000023
:10007000E803000000006400000000000A00000027
:1000800000000100000000002C76D888DC674F08D3
:1000900023DFC1DFAE59E1B1B796E5E3E453C63AD9
:1000A000E651997696E8E6C28426EB898C9B62ED50
:1000B000407C6FFCEFBC9C9F40F2BAA56FA5F4900A
:1000C000055A2AF75C936B6CF9676DC11BFCE0E481
:1000D0000D47FEF520E6B500D0ED902E03009435D7
:1000E00077050080841E080000204E0A000000C82A
:1000F0000C333333330F986E12831141EF8D21147B
:10010000893BE65516CFFEE6DB18D1844B381BF74A
:100110007C1D901DA4BBE424203284725E228100E9
:10012000C9F124ECA1E53D2711241FBECFE5D4E0A1
:10013000DEBFCDBF10E0A0E6B0E0E6EDF9E102C021
:1001400005900D92AE3BB107D9F710E0AEEBB0E0F1
:1001500001C01D92A63DB107E1F702D03ACC50CFC5
:10016000CF92DF92EF92FF920F931F93DF93CF9383
:10017000CDB7DEB7A6970FB6F894DEBF0FBECDBFE2
:100180008FE087BBDE011596E0E6F0E080E20190AB
:100190000D928150E1F78EEF89838DEF8A838BEF8B
:1001A0008B8387EF8C8323D116D18DD000E010E0B4
:1001B00020E030E06E010894C11CD11C02C000E0B8
:1001C00010E0F601E00FF11F808188BB2DA33EA354
:1001D00048D17C01C8015AD12DA13EA141E0E416CD
:1001E000F10481F42115310599F44FEF8C3994070E
:1001F00089F0FC01EE0FFF1FEC0DFD1D8481958140
:1002000055D406C0E114F10429F420E030E002C026
:1002100021E030E08FE493EC0197F1F700C000009B
:10022000E114F10471F60F5F1F4F0430110549F618
:10023000C6CF05C0000061507040804090406115FD
:10024000710581059105B1F70895949A6AE070E00F
:1002500080E090E0EEDF949808950F931F93182F9D
:10026000062F68EE73E080E090E0E3DF002311F0FA
:10027000959A01C095988B9A8A9A899A889A9098AB
:1002800091989298939817FD909A16FD919A15FD62
:10029000929A14FD939AD9DF909891989298939896
:1002A00013FD909A12FD919A11FD929A10FD939A66
:1002B000CCDF939A929A919A909A1F910F910895F8
:1002C00060E0CBDF08951092BF001092BE0082E084
:1002D000F7DF0895662319F0613031F403C08058C8
:1002E000EFDF08958054ECDF0895843030F4E82F78
:1002F000F0E0EF56FF4F908101C090E08093BE0088
:100300001092BF00892F8058DBDF08958A3061F496
:100310008091BE009091BF001816190614F480E079
:1003200001C08F5FE2DF089561E097DF0895CF930A
:10033000DF93EC0101C0EADF89918823E1F7DF91C7
:10034000CF910895DF93CF93CDB7DEB760970FB607
:10035000F894DEBF0FBECDBF682FDE011196E0E836
:10036000F0E080E101900D928150E1F7B3DFCE0122
:100370000196DDDF60960FB6F894DEBF0FBECDBFED
:10038000CF91DF9108950F931F93DF93CF93CDB754
:10039000DEB7C050D1400FB6F894DEBF0FBECDBF60
:1003A000FE01E95FFE4F419151918E010F5F1F4F9A
:1003B000C8016FEF70E09F0186DAC801B8DFC05056
:1003C000DF4F0FB6F894DEBF0FBECDBFCF91DF91E8
:1003D0001F910F9108951092BF001092BE0081E00E
:1003E0006FDF64EF71E080E090E023DF08958D9A85
:1003F0008C9A8B9A8A9A899A889A68EA71E680E040
:1004000090E017DF929A939A20DF60ED77E080E02A
:1004100090E00FDF1ADF60E470E080E090E009DF39
:10042000939813DF60ED77E080E090E002DF88E2F0
:1004300047DF0BDF60ED77E080E090E0FADE86E0FA
:100440003FDF03DF64EC79E080E090E0F2DE8CE0F7
:1004500037DFFBDE64EC79E080E090E0EADE33DF5A
:100460000895B49B0FC0B59B0DC0B69B0BC026B3BF
:10047000332727FD3095209530952227330F221FF3
:10048000332702C021E030E0C9010895B49B09C0C0
:10049000B59B0AC0B69B0BC0B79912C023E030E0F1
:1004A00008C020E030E005C021E030E002C022E0DA
:1004B00030E0220F331F220F331F280F391F02C0D5
:1004C0002FEF3FEFC9010895EF92FF920F931F9313
:1004D000CF93DF932091C8003091C90021153105D9
:1004E00081F147E220313407ECF5E901CC0FDD1F43
:1004F00053E0220F331F5A95E1F7C20FD31FD09359
:10050000C900C093C8002091BC003091BD00829FFB
:10051000B001839F700D929F700D1124882777FD85
:100520008095982F45D77B018C01BE01882777FDE8
:100530008095982F3DD79B01AC01C801B701CED65D
:1005400015C02091BC003091BD00829FB001839FF7
:10055000700D929F700D1124882777FD8095982F3C
:1005600027D704C060E070E080E090E0DF91CF9199
:100570001F910F91FF90EF900895EF92FF920F93CC
:100580001F93CF93DF93EC01CB019EDF7B018C01A6
:10059000FE01EE0FFF1FEC53FF4F8081918100970A
:1005A00079F4CC0FDD1FCC0FDD1FC653DF4FE8827F
:1005B000F9820A831B8381E090E09183808323C0CA
:1005C0008091C8009091C900CC0FDD1FCC0FDD1FBA
:1005D000009761F4C653DF4F688179818A819B81DE
:1005E00020E030E040E251E493D706C0C653DF4F2D
:1005F000688179818A819B81A801970107D66883E8
:1006000079838A839B83DF91CF911F910F91FF9014
:10061000EF900895DF92EF92FF920F931F93DF9375
:10062000CF93CDB7DEB760970FB6F894DEBF0FBE9D
:10063000CDBF80E060E04EDE7E010894E11CF11C3D
:10064000C70165E970E0E1D8C70171DE81E090E0A3
:1006500079DE00E010E0DE2CEF2C802F61E03ADE46
:100660008D2D9E2D66EA70E0D0D88D2D9E2D5FDEFB
:100670008FEF90E7A2E081509040A040E1F700C0EA
:1006800000000F5F1F4F0031110539F71092C100B4
:100690001092C0001092C3001092C2001092C500C8
:1006A0001092C4001092C7001092C60081E090E042
:1006B0009093BD008093BC001092C9001092C800B6
:1006C00080E090E0DC018093CA009093CB00A0937F
:1006D000CC00B093CD008093CE009093CF00A09338
:1006E000D000B093D1008093D2009093D300A09318
:1006F000D400B093D50060960FB6F894DEBF0FBE5D
:10070000CDBFCF91DF911F910F91FF90EF90DF90C0
:100710000895EF92FF920F931F938091C2009091E2
:10072000C3008B32910581F08C3291052CF48A3212
:10073000910509F064C02CC08D329105B9F08F325B
:10074000910509F05CC036C06091CA007091CB0081
:100750008091CC009091CD002091CE003091CF00BF
:100760004091D0005091D10051D541C06091CA0054
:100770007091CB008091CC009091CD002091CE0063
:100780003091CF004091D0005091D1003ED52FC084
:100790006091CA007091CB008091CC009091CD0007
:1007A0002091CE003091CF004091D0005091D100E7
:1007B000AFD61DC0E090CE00F090CF000091D000E9
:1007C0001091D100C801B70120E030E0A90182D525
:1007D000882311F41FDF19C06091CA007091CB000B
:1007E0008091CC009091CD00A801970177D56093BE
:1007F000D2007093D3008093D4009093D50082E010
:1008000090E09093C1008093C0001F910F91FF90E2
:10081000EF900895CF93DF93EC018091C000909109
:10082000C1008230910541F08091C6009091C700CF
:100830008130910509F46DDF8091C0009091C10075
:1008400082309105F9F48091D2009091D300A0916B
:10085000D400B091D5008093CA009093CB00A093B0
:10086000CC00B093CD0080E090E0DC018093CE001E
:100870009093CF00A093D000B093D1001092C70006
:100880001092C6008091C4009091C50081309105FE
:1008900069F4D093C300C093C2009093C1008093C9
:1008A000C0001092C9001092C80005C0CD32D10519
:1008B00031F48FEF9FEF9093BD008093BC00DF91E8
:1008C000CF9108950F931F93DF93CF93CDB7DEB7EA
:1008D00060970FB6F894DEBF0FBECDBF8091C00009
:1008E0009091C1008230910509F46AC08091C400E2
:1008F0009091C5008130910599F580E060E0EADCD7
:100900008DB79EB708970FB6F8949EBF0FBE8DBFE8
:10091000EDB7FEB731968E010F5F1F4FADB7BEB773
:1009200012961C930E93119788EA90E0938382832A
:100930008091CA009091CB00A091CC00B091CD00E5
:1009400084839583A683B7839ED78DB79EB7089679
:100950000FB6F8949EBF0FBE8DBFC801E8DC03C080
:1009600080E090E0EFDC8091C6009091C70081307C
:10097000910511F580E061E0ADDCADB7BEB7189729
:100980000FB6F894BEBF0FBEADBFEDB7FEB7319640
:100990008E010F5F1F4F12961C930E93119788EADA
:1009A00090E0938382838091CE009091CF00A091BC
:1009B000D000B091D10028C081E090E0C3DC33C00A
:1009C00080E090E0BFDC81E061E084DCADB7BEB7E1
:1009D00018970FB6F894BEBF0FBEADBFEDB7FEB708
:1009E00031968E010F5F1F4F12961C930E93119735
:1009F00080EB90E0938382838091D2009091D3002A
:100A0000A091D400B091D50084839583A683B78349
:100A10003AD78DB79EB708960FB6F8949EBF0FBE13
:100A20008DBFC80184DC80E061E054DC8091C000AF
:100A30009091C1008230910541F48E010F5F1F4FEC
:100A4000C80167EB70E0E1D624C08091C2009091AC
:100A5000C300009701F100D000D000D0EDB7FEB781
:100A600031968E010F5F1F4FADB7BEB712961C9324
:100A70000E93119729EB30E033832283958384838F
:100A800002D78DB79EB706960FB6F8949EBF0FBEDD
:100A90008DBFC8014CDC60960FB6F894DEBF0FBE68
:100AA000CDBFCF91DF911F910F910895BC018A3086
:100AB00091055CF497FF18C08FEF6E3F780751F1F6
:100AC0008FEF6F3F7807C1F518C08D32910591F116
:100AD0008E3291052CF48A978230910568F52AC0F0
:100AE0008F32910549F526C08091C0009091C100D8
:100AF0008230910509F141DD1FC08091C8009091BD
:100B0000C9000097C9F481E090E09093C9008093F8
:100B1000C80012C08091C4009091C5008130910539
:100B200059F48091C6009091C7008130910521F45D
:100B3000F0DD02C0CB016EDEC5DE0895A3E1B0E0BA
:100B4000E3EAF5E048C56C017F876E87FC011782F8
:100B50001682838181FD04C052C34C855D8504C02B
:100B60001E010894211C311CF6019381EE85FF853E
:100B700093FD859193FF8191FF87EE87882309F488
:100B80003AC3853241F493FD859193FF8191FF87AC
:100B9000EE87853251F490E0B6014A8B5B8B47D6E5
:100BA0004A895B895D874C87D8CF10E0FF2400E03D
:100BB0000032B0F48B3269F08C3228F4803251F07C
:100BC000833271F40BC08D3239F0803349F4016007
:100BD0002CC00260046029C0086027C0006125C0E5
:100BE00007FD2EC0282F20532A3098F406FF08C096
:100BF000812F880F182F110F110F180F120F15C00A
:100C00008F2D880FF82EFF0CFF0CF80EF20E0062ED
:100C10000CC08E3221F406FDEEC2006406C08C3694
:100C200011F4006802C0883659F4EE85FF8593FD03
:100C3000859193FF8191FF87EE87882309F0B8CFD4
:100C4000982F9554933018F40061805E06C0982F59
:100C50009556933008F08BC10F7E06FF16E06FE3C8
:100C6000E62EE022853619F4F0E4EF2A07C0863636
:100C700019F420E8E22A02C011111150E7FE06C063
:100C80001C3340F4912E939427E00BC0183030F4BD
:100C9000212F06C027E03CE3932E03C027E017E096
:100CA0009924CA0104969D878C87FA01608171811D
:100CB00082819381A101092DC5D45C016980262D13
:100CC00030E0398B288B60FE03C0388933FF06C0C3
:100CD000E1FC06C0E2FE06C000E205C00DE203C072
:100CE0000BE201C000E0888999898C7090700097B0
:100CF000A9F1002311F084E001C083E08F1550F4C6
:100D0000F81AE3FC08C080E290E0B60190D5FA94AE
:100D1000D1F701C0FF24002321F0802F90E0B6011D
:100D200086D5888983FD03C00AE210E00DC006E283
:100D300010E00AC0A114B10409F0805290E0B6019D
:100D400076D50F5F1F4F05C0AE2CBB2490E1A922C2
:100D5000BB24F8018491882369F74AC2E7FE0EC0DC
:100D60009A0CF889F4FF04C08A81813309F49A94BB
:100D7000191454F5292D293050F52DC0E6FC2BC04F
:100D8000812F90E08A159B054CF03CEFA3163FEFB6
:100D9000B30624F080E8E82A01C01150112349F07D
:100DA000E2E0F0E0EC0FFD1FE10FF11D80818033E8
:100DB000A1F3E7FE10C0912E9394812F90E0A81626
:100DC000B90644F41A1907C09924939404C098E012
:100DD000992E01C010E0E7FE07C01A141B043CF472
:100DE00095012F5F3F4F05C025E030E002C021E0B4
:100DF00030E0002311F02F5F3F4F112329F0812FA6
:100E000090E00196280F391F8F2D90E028173907A1
:100E100014F4F21A01C0FF244E2C5524C20189702B
:100E20009070009741F405C080E290E0B601FFD4D5
:100E3000FA94FF20C9F7002321F0802F90E0B6013B
:100E4000F6D443FC08C005C080E390E0B601EFD4BF
:100E5000FA94FF20C9F7E7FE44C03501B7FE02C08F
:100E60006624772425010894411C511C4618570814
:100E7000420C531CF501E919F1094F01812F90E053
:100E800000271127081B190BFFEF6F16FFEF7F06D6
:100E900021F48EE290E0B601CAD4A614B70434F06F
:100EA000861497041CF4F201808101C080E3089449
:100EB000610871080894411C511C6016710624F0E9
:100EC00090E0B601B4D4E0CF6A147B0441F49A8177
:100ED000963320F4953319F4F889F4FF81E390E018
:100EE00043C08A81813311F02FEE622290E0B60177
:100EF0009ED4112379F08EE290E0B60198D402E0FE
:100F0000F101E00FF11D0F5F808190E0B6018FD4F9
:100F10001150B1F744FE03C085E490E002C085E6BD
:100F200090E0B60184D4B7FC05C0A114B10441F42B
:100F300064FE06C0B094A194B108B3948DE201C0E0
:100F40008BE290E0B60173D480E305C08F5FE6EFDB
:100F5000FFEFAE0EBF1EFAE0AF16B104BCF790E093
:100F6000B60165D4C501C096B60161D441C18336CE
:100F700031F0833789F0833509F055C021C09A01DB
:100F80002E5F3F4F3D872C87FA0180818983310195
:100F900081E0A82EB12C12C09A012E5F3F4F3D87F1
:100FA0002C87FA016080718006FF03C0612F70E01A
:100FB00002C06FEF7FEFC3012FD45C010F7713C026
:100FC0009A012E5F3F4F3D872C87FA016080718028
:100FD00006FF03C0612F70E002C06FEF7FEFC30117
:100FE00009D45C01006803FD1AC005C080E290E0EE
:100FF000B6011DD4FA948F2D90E0A816B906B0F36F
:101000000EC0F30107FD859107FF81913F0190E03C
:10101000B6010DD4F110FA940894A108B108A114F6
:10102000B10479F7E5C0843611F0893659F507FF28
:101030000BC09A012C5F3F4F3D872C87FA016081DE
:101040007181828193810CC09A012E5F3F4F3D8751
:101050002C87FA0160817181882777FD8095982F10
:101060000F7697FF08C090958095709561957F4F9A
:101070008F4F9F4F0068A1012AE030E04CD4982E9A
:10108000921840C0853721F40F7E2AE030E020C05E
:10109000097F8F36A9F0803720F4883509F0ABC07E
:1010A0000BC0803721F0883709F0A5C001C000616E
:1010B00004FF09C0046007C004FF08C0066006C042
:1010C00028E030E005C020E130E002C020E132E05D
:1010D00007FF0AC0CA0104969D878C87FA016081C8
:1010E00071818281938109C0CA0102969D878C8794
:1010F000FA016081718180E090E0A1010CD4982E0A
:1011000092180F7706FF09C00E7F911630F404FF86
:1011100006C002FD04C00F7E02C0E92C01C0E12E12
:10112000802F90E004FF0CC0FE01E90DF11D20812D
:10113000203311F4097E09C0E39402FF06C004C005
:1011400086789070009709F0E394A02EBB2403FDED
:1011500013C000FF0EC0EF1428F4192D1F0D1E1927
:10116000EF2C07C0192D05C080E290E0B6015FD3D7
:10117000E394EF14C8F304C0EF1410F4FE1801C098
:10118000FF24A4FE0EC080E390E0B60150D3A2FE7F
:101190001DC0A1FE03C088E590E010C088E790E084
:1011A0000DC0C50186789070009781F0A1FC02C047
:1011B00080E201C08BE207FD8DE290E0B60137D3FB
:1011C00005C080E390E0B60132D311509116C8F308
:1011D0009A94F101E90DF11D808190E0B60127D3C9
:1011E0009920B1F705C080E290E0B60120D3FA94CF
:1011F000FF20C9F7B2CCF6012681378102C02FEF5C
:101200003FEFC9016396E2E102C25058BB27AA270B
:101210000ED044C135D130F03AD120F031F49F3FA7
:1012200011F41EF42AC10EF4E095E7FB20C1E92F6A
:1012300046D180F3BA17620773078407950718F041
:1012400071F49EF55EC10EF4E0950B2EBA2FA02D21
:101250000B01B90190010C01CA01A0011124FF2763
:10126000591B99F0593F50F4503E68F11A16F0405E
:10127000A22F232F342F4427585FF3CF469537955D
:101280002795A795F0405395C9F77EF41F16BA0B22
:10129000620B730B840BBAF09150A1F0FF0FBB1FD0
:1012A000661F771F881FC2F70EC0BA0F621F731F19
:1012B000841F48F4879577956795B795F7959E3F76
:1012C00008F0B3CF9395880F08F09927EE0F979504
:1012D00087950895A8D008F481E008950CD0DEC069
:1012E000D6D040F0CDD030F021F45F3F19F0BFC030
:1012F000511108C1C2C0E3D098F39923C9F3552313
:10130000B1F3951B550BBB27AA27621773078407F8
:1013100038F09F5F5F4F220F331F441FAA1FA9F3AE
:1013200033D00E2E3AF0E0E830D091505040E695A0
:10133000001CCAF729D0FE2F27D0660F771F881F01
:10134000BB1F261737074807AB07B0E809F0BB0BF0
:10135000802DBF01FF2793585F4F2AF09E3F510514
:1013600068F085C0CFC05F3FECF3983EDCF3869514
:1013700077956795B795F7959F5FC9F7880F911D8A
:101380009695879597F90895E1E0660F771F881F76
:10139000BB1F621773078407BA0720F0621B730B29
:1013A000840BBA0BEE1F88F7E0950895E89409C006
:1013B00097FB3EF490958095709561957F4F8F4F88
:1013C0009F4F9923A9F0F92F96E9BB279395F6959E
:1013D000879577956795B795F111F8CFFAF4BB0F1C
:1013E00011F460FF1BC06F5F7F4F8F4F9F4F16C080
:1013F000882311F096E911C0772321F09EE8872F0A
:10140000762F05C0662371F096E8862F70E060E0C5
:101410002AF09A95660F771F881FDAF7880F96953E
:10142000879597F90895990F0008550FAA0BE0E8E2
:10143000FEEF16161706E807F907C0F01216130696
:10144000E407F50798F0621B730B840B950B39F4D6
:101450000A2661F0232B242B252B21F408950A263C
:1014600009F4A140A6958FEF811D811D089597F97C
:101470009F6780E870E060E008959FEF80EC08953A
:1014800000240A9416161706180609060895002463
:101490000A9412161306140605060895092E0394DD
:1014A000000C11F4882352F0BB0F40F4BF2B11F451
:1014B00060FF04C06F5F7F4F8F4F9F4F089557FDB0
:1014C0009058440F551F59F05F3F71F04795880FB2
:1014D00097FB991F61F09F3F79F087950895121649
:1014E00013061406551FF2CF4695F1DF08C01616F5
:1014F00017061806991FF1CF8695710561050894A6
:101500000895E894BB2766277727CB0197F90895BC
:101510000BD0C4CFB5DF28F0BADF18F0952309F05F
:10152000A6CFABCF1124EECFCADFA0F3959FD1F3A6
:10153000950F50E0551F629FF001729FBB27F00D81
:10154000B11D639FAA27F00DB11DAA1F649F6627D6
:10155000B00DA11D661F829F2227B00DA11D621F25
:10156000739FB00DA11D621F839FA00D611D221FDF
:10157000749F3327A00D611D231F849F600D211DC3
:10158000822F762F6A2F11249F5750408AF0E1F066
:1015900088234AF0EE0FFF1FBB1F661F771F881FAF
:1015A00091505040A9F79E3F510570F060CFAACFEF
:1015B0005F3FECF3983EDCF3869577956795B7959A
:1015C000F795E7959F5FC1F7FE2B880F911D9695C4
:1015D000879597F908952F923F924F925F926F925D
:1015E0007F928F929F92AF92BF92CF92DF92EF92B3
:1015F000FF920F931F93CF93DF93CDB7DEB7CA1B34
:10160000DB0B0FB6F894DEBF0FBECDBF09942A885E
:10161000398848885F846E847D848C849B84AA8406
:10162000B984C884DF80EE80FD800C811B81AA8193
:10163000B981CE0FD11D0FB6F894DEBF0FBECDBF5E
:10164000ED010895283008F027E03327DA01990FDB
:10165000311D87FD916000966105710539F4326096
:101660002E5F3D9330E32A95E1F708959F3F30F0D8
:1016700080387105610509F03C5F3C5F3D93913016
:1016800008F08068911DDF93CF931F930F93FF9213
:10169000EF92192F987F9695E92F96959695E90FD9
:1016A000FF27E857FF4F99273327EE24FF24A70190
:1016B000E70105900894079428F4360FE71EF81EFA
:1016C000491F511D660F771F881F991F0694A1F7A8
:1016D0000590079428F4E70EF81E491F561FC11DF8
:1016E000770F881F991F661F0694A1F7059007942E
:1016F00028F4F80E491F561FC71FD11D880F991FC8
:10170000661F771F0694A1F70590079420F4490FF0
:10171000561FC71FD81F990F661F771F881F069473
:10172000A9F784911095177041F0D695C7955795F4
:101730004795F794E7941A95C1F7EEE2F0E06894C4
:101740001590159135916591959105907FE273956E
:10175000E118F10A430B560BC90BD009C0F7E10C95
:10176000F11E431F561FC91FD01D7EF4703311F4A4
:101770008A95E6CFE894015030F0080F0AF400276C
:10178000021708F4202F2395022F7A3328F079E3EB
:101790007D932A95E9F710C07D932A9589F60694E2
:1017A00097956795379517951794E118F10A430BAC
:1017B000560BC90BD00998F023957E9173957A3317
:1017C00008F070E37C932013B8F77E9170617D93ED
:1017D00030F0839571E37D9370E32A95E1F711244E
:1017E000EF90FF900F911F91CF91DF91992787FD87
:1017F00090950895FC010590615070400110D8F754
:10180000809590958E0F9F1F0895FB01DC0101903C
:101810000D920020E1F70895FC01615070400190A5
:101820000110D8F7809590958E0F9F1F08950F9304
:101830001F93CF93DF938C01EB018B8181FF1BC042
:1018400082FF0DC02E813F818C819D812817390731
:1018500064F4E881F9810193F983E88306C0E8859F
:10186000F985802F0995009731F48E819F8101962B
:101870009F838E8302C00FEF1FEFC801DF91CF91CE
:101880001F910F910895AEE0B0E0E8E4FCE0B1CE26
:101890000D891E8986E08C831A8309838FEF9FE769
:1018A0009E838D839E01275E3F4FCE0101966F89F7
:1018B000788DA90143D9EF81F885E00FF11F1082DF
:1018C0002E96E4E0B2CEAEE0B0E0E8E6FCE091CEE9
:1018D0008C01CB01BA0146E04C831A83098397FF40
:1018E00002C080E090E801979E838D83CE0101962F
:1018F000A90124D94D815E8157FD0AC02F81388509
:10190000421753070CF49A01020F131FF8011082BB
:101910002E96E4E08ACEFA01AA27283051F1203130
:1019200081F1E8946F936E7F6E5F7F4F8F4F9F4F73
:10193000AF4FB1E03ED0B4E03CD0670F781F891FB5
:101940009A1FA11D680F791F8A1F911DA11D6A0F83
:10195000711D811D911DA11D20D009F468943F9136
:101960002AE0269F11243019305D3193DEF6CF0135
:101970000895462F4770405D4193B3E00FD0C9F7FB
:10198000F6CF462F4F70405D4A3318F0495D31FD68
:101990004052419302D0A9F7EACFB4E0A6959795BB
:1019A000879577956795BA95C9F700976105710591
:1019B00008959B01AC010A2E0694579547953795DB
:1019C0002795BA95C9F7620F731F841F951FA01D35
:0619D0000895F894FFCF1A
:1019D6000700080009002F000400050006002A0081
:1019E6000100020003002D00FFFF0000FEFF2B0098
:1019F60020202020202020202020202020202020E1
:101A06000000401454426C65646E6520647A696116
:101A16006C616E6965002E00202531352E37670012
:0E1A26002531352E3767003D00256300010095
:00000001FF
